:0200000480007A
:100000006F00C0006F0000006F00C0029702000088
:10001000938282027390523073500030735040309C
:10002000971100009381017F172100001301810ABD
:100030006F000013130101F8232011002322210077
:10004000232431002326410023285100232A610064
:10005000232C7100232E8100232091022322A10250
:100060002324B1022326C1022328D102232AE1023C
:10007000232CF102232E0103232011052322210525
:10008000232431052326410523285105232A610510
:10009000232C7105232E8105232091072322A107FC
:1000A0002324B1072326C1072328D107232AE107E8
:1000B000232CF107F3221034232E5106732520340C
:1000C000F325103413060100EF00401C73101534A3
:1000D000B72200009382028073A0023083200100C7
:1000E00003214100832181000322C10083220101F9
:1000F00003234101832381010324C10183240102DD
:1001000003254102832581020326C10283260103C0
:1001100003274103832781030328C10383280104A4
:100120000329410483298104032AC104832A010588
:10013000032B4105832B8105032CC105832C01066C
:10014000032D4106832D8106032EC106832E010750
:10015000032F4107832F810713010108730020300B
:10016000B7170080130101FE938707EE2322F100E9
:1001700037170080B7170080232E110023240100B9
:100180002326010093870701130707019386018146
:1001900063F2F604938701811387018193860189B5
:1001A00063F4F604938701891387018A6378F7045F
:1001B0009387018A1387018C6378F70493054100C4
:1001C00013051000EF00902E8320C10113010102DE
:1001D0006780000003260700938747001307470046
:1001E00023AEC7FE6FF0DFFA0326070093874700B0
:1001F0001307470023AEC7FE6FF09FFA23A0070046
:10020000938747006FF09FFA23A00700938747006A
:100210006FF09FFA67800000930740063355F502A0
:100220009387018923A2070023A0A700630C05047C
:10023000F32740F137C70044032887FF8328C7FF0F
:10024000330705013335A7001306070037170000F1
:1002500013070780B387E7009397370037070044F9
:10026000B307F70023A0C700B306150123A2D700E8
:1002700093070008F3A74730F36704301305000025
:10028000678000001305100067800000130101FF64
:100290002326110023248100232291002320210101
:1002A000635C0512B707008093C7F7FFB377F500CB
:1002B0001307B00093840500639EE708F32740F11D
:1002C00093870720370400409397C700B307F400D3
:1002D00003A947009387018113172900B387E7001B
:1002E00083A70700E7800700F32740F193870720E3
:1002F0009397C700B307F40023A2270193071000C8
:10030000631CF502F32740F19397570013575900E8
:10031000B387E700939727003304F400B727000062
:100320003304F40083270400331525011345F5FF3A
:100330003375F5002320A4008320C100032481002D
:1003400013850400032901008324410013010101E6
:1003500067800000130770006394E7061304000829
:10036000F3374430EF001003B7C7004403A887FFFA
:1003700083A8C7FFF32740F19386018903A70600EE
:1003800083A546003307E80033350701130607004D
:100390003717000013070780B387E70093973700EC
:1003A00037070044B307F700B385B800B306B500BC
:1003B00023A0C70023A2D700732444306FF0DFF7D7
:1003C00013073000639AE700EF008001B70700448D
:1003D00023A007006FF05FF613051500EF00400F34
:1003E000130101FF1305A00023261100EF00400EAA
:1003F00013050000678000001305000067800000FF
:1004000013050000678000001305000067800000EE
:1004100013050000678000001305000067800000DE
:1004200013050000678000001305000067800000CE
:1004300013050000678000001305000067800000BE
:1004400013050000678000001305000067800000AE
:10045000130500006780000013050000678000009E
:10046000130500006780000013050000678000008E
:10047000130500006780000013050000678000007E
:10048000130500006780000013050000678000006E
:10049000130500006780000013050000678000005E
:1004A000130500006780000013050000678000004E
:1004B000130500006780000013050000678000003E
:1004C000130500006780000013050000678000002E
:1004D0006F0000002320B5006780000003250500A1
:1004E00067800000138E0600331EBE00337ECE00F0
:1004F000032305009303060093C3F3FF33737300D4
:100500003363C301232065006780000003250500D5
:100510003375C5003355B500678000002310B50062
:10052000678000000315050067800000138E060039
:10053000331EBE00337ECE00031305009303060076
:1005400093C3F3FF337373003363C3012310650058
:1005500067800000031505003375C5003355B500ED
:10056000678000002300B5006780000003050500D8
:1005700067800000138E0600331EBE00337ECE005F
:10058000030305009303060093C3F3FF3373730063
:100590003363C30123006500678000000305050085
:1005A0003375C5003355B500678000006304050A44
:1005B0009307700063E0D70AB7270000637CF60852
:1005C000130101FE232C81002328210113040600BE
:1005D00013890500232A91009375F60F93040500F3
:1005E0001354544013058900232E11002326310192
:1005F0001374847F93890600EFF0DFF61305C900BA
:10060000B3653401EFF01FF61305090123A024019F
:10061000EFF0DFF513752500631205022382040055
:100620008320C101032481018324410103290101A5
:100630008329C100130101026780000003A50400A3
:1006400013054500EFF09FF203A504001305050113
:100650006FF01FFC678000006302050663800506DB
:10066000130101FF2324810023229100232611007E
:10067000930405001384050083470400639C07006E
:100680008320C10003248100832441001301010160
:100690006780000003A5040013050501EFF01FEDBE
:1006A00013751500E30805FE8345040003A5040047
:1006B00013041400EFF01FEB6FF01FFC67800000C5
:1006C000130101FF23248100232291002320210113
:1006D00023261100130405002320B4009384050091
:1006E0002322C50013890508138504009305000023
:1006F00093844400EFF01FE7E39824FF832744002E
:1007000013071000638AE7026384070613072000BB
:10071000639AE70A03250400032481008320C100B3
:1007200083244100032901009305F0FF1305050808
:10073000130101016FF01FDA03250400B704010063
:100740009385F4FF13050508EFF05FDD0325040032
:10075000032481008320C100032901009385F4FF55
:100760008324410013054508130101016FF01FDBCD
:10077000032504009305F00F13050508EFF09FDE35
:10078000032504009305F00F13054508EFF09FDDE6
:10079000032504009305F00F13058508EFF09FDC97
:1007A00003250400032481008320C1008324410029
:1007B000032901009305F00F1305C508130101017A
:1007C0006FF05FDA8320C10003248100832441009D
:1007D0000329010013010101678000001307F001E4
:1007E000636CB70003250500939725009305060069
:1007F0003385A7006FF01FCE678000008327450078
:10080000130101FF232481002326110023229100DC
:100810002320210113071000130405006388E70259
:1008200063840706130720006398E70A0325050081
:10083000032481008320C100832441000329010097
:100840001305050A130101016FF05FC903250500B7
:100850001305050AEFF01FCD9304050003250400DE
:100860001305450AEFF01FCC1315050133659500FC
:100870008320C10003248100832441000329010057
:100880001301010167800000032505001305050A17
:10089000EFF05FC993040500032504001305450A22
:1008A000EFF05FC813090500032504001319890040
:1008B0001305850AEFF01FC7131505013369A90059
:1008C00003250400B36499001305C50AEFF09FC522
:1008D000131585016FF09FF9130500006FF05FF9A4
:1008E000130101FE232A910083244500232C81005B
:1008F000232821012326310123225101232E110017
:100900002324410113041000930A050013890500F4
:1009100093090600638E84046382040C930720000D
:100920006392F41203250500331424011305050A0C
:10093000EFF0DFBAB365A400639609001344F4FF37
:10094000B375A40003A50A00032481018320C1011B
:1009500083244101032901018329C100032A810065
:10096000832A41001305050A130101026FF09FB6A7
:1009700013DA450083270500131A2A00130A0A0A0E
:100980001374F900330AFA00B394840013050A00C3
:1009900093940401EFF01FB993D40441B3E5A4008C
:1009A0006396090093C5F4FFB3F5A5000324810104
:1009B0008320C10183244101032901018329C1004E
:1009C000832A410013050A00032A8100939505013B
:1009D00093D50501130101026FF05FB493D4350084
:1009E00083270500939424009384040A13797900E3
:1009F000B384F40033142401138504001314840118
:100A0000EFF0DFB613548441B365A4006396090088
:100A10009345F4FFB3F5A500032481018320C101B0
:100A2000032901018329C100032A8100832A41008F
:100A3000138504008324410193F5F50F130101028E
:100A40006FF05FB28320C10103248101832441013F
:100A5000032901018329C100032A8100832A41005F
:100A600013010102678000009307F00163E0B704FF
:100A700083270500130101FF23248100139425001F
:100A80003304F4001305040023261100EFF01FAE19
:100A90009365850013050400032481008320C100B1
:100AA00093F5F50F130101016FF0DFAB67800000D4
:100AB00083274500130101FF232481002322910095
:100AC000130710002326110013040500B314B70008
:100AD0006388E702638E0704130720006392E70A26
:100AE00003250500032481008320C10093850400B1
:100AF0008324410013050508130101016FF09F9D38
:100B0000032505009385040013050508EFF01FA1D8
:100B100003250400032481008320C10093D5040130
:100B20008324410013054508130101016FF01F9F45
:100B3000032505009385040013050508EFF09FA227
:100B40000325040093D5840013054508EFF09FA109
:100B50000325040093D5040113058508EFF09FA039
:100B600003250400032481008320C10093D5840160
:100B7000832441001305C508130101016FF09F9EF6
:100B80008320C1000324810083244100130101015B
:100B900067800000130101FF232481001385018A6F
:100BA00023261100EFF09FC59307000113060000F4
:100BB0006304F500130610001385018A03248100E5
:100BC0008320C10093054000130101016FF05FD144
:100BD000130101FF13072000930500001385818A8C
:100BE00023261100238CE188EFF09FECF32740F1DE
:100BF00093870720370700409397C700B307F70094
:100C000083A64700F32740F1938707208320C10084
:100C10009397C700B307F70023A2D7001301010180
:100C200067800000130101FF1307300093051000D7
:100C30001385818A23261100238CE188EFF05FE77A
:100C4000F32740F193870720370700409397C700A9
:100C5000B307F70083A64700F32740F193870720E7
:100C60008320C1009397C700B307F70023A2D700E2
:100C70001301010167800000F32740F193870720EB
:100C8000370700409397C700B307F70083A64700D4
:100C9000F32740F1938707209397C700B307F70026
:100CA00023A2D700678000006FF01FFD130101FE33
:100CB000232A910093071000232E1100232C81007A
:100CC000232821012326310123244101232251011C
:100CD00023206101238CF188F32740F11387070457
:100CE00093167700370700403307D700232007000B
:100CF0009384818913070000B70600409305F00133
:100D0000131627003386C60023200600130717009A
:100D1000E318B7FE938707209397C700B387F600C1
:100D200023A00700B717000093870780F3A7473079
:100D30009307100023AEF606732740F113177700D0
:100D40003387E600B72500003307B7000326070006
:100D5000B70700803366F6002320C7009307200002
:100D600023ACF606F32740F193977700B387F6009C
:100D7000B387B70003A707001385818AB366D7003E
:100D800023A0D70013062000B7050070EFF05F9393
:100D90001385018A13062000B7050070EFF05F92FB
:100DA000130620061385818A93050000EFF01FA328
:100DB0001385818A93050000EFF01FCB13062006F0
:100DC0001385818A93051000EFF05FA11385818A56
:100DD00093051000EFF05FC91385018A13065000D8
:100DE00093052000EFF09F9F1385018A13065000A2
:100DF00093053000EFF09F9E1385018A13060000D3
:100E000093052000EFF0DFAD1385018A1306000083
:100E100093053000EFF0DFAC1385018A1306500014
:100E200093054000EFF09F9B1385018A1306500045
:100E300093055000EFF09F9A1385018A1306000076
:100E400093054000EFF0DFA91385018A1306000027
:100E500093055000EFF0DFA8930610001306A001E1
:100E6000B71500701385818BEFF04FF437857D0146
:100E700013050584EFF04FBAB717008083A5C701AB
:100E80001385818B130A2000EFF00FFDB717008048
:100E900083A587011385818B930A3000EFF0CFFB88
:100EA000371B008013091000B719008083C70400A6
:100EB00063884701E39E57FF83A549016F008000C7
:100EC00083250B011385818BEFF00FF9238024011B
:100ED0006FF0DFFD000000000000000000000000D7
:100EE00068656C6C6F0000000A0D546865207661BF
:100EF0006C756520696E206368616E6E656C20326A
:100F00002069733A202564206D5600000A0D54684C
:100F1000652076616C756520696E206368616E6E10
:100F2000656C20302069733A202564206D560000DE
:100F30000A0D4672656552544F532053696D706CAB
:100F4000652044656D6F0A0D2020566F6C746167D3
:100F50006520696E7075742072616E67653A203025
:100F600020746F207E373834206D560A0D0A0D200C
:100F70002050726573732050423120746F2073616A
:100F80006D706C6520414443206368616E6E656CD2
:100F9000203020766F6C746167650A0D20205072D6
:100FA0006573732050423220746F2073616D706CD2
:100FB0006520414443206368616E6E656C20322079
:100FC000766F6C746167650A0D0000000A0D284396
:100FD0002920436F70797269676874203230313923
:100FE0002046757475726520456C656374726F6E0A
:100FF000696373202D2043726561746976652042B0
:101000006F6172640A0D0000000000000000000023
:101010000C0F0080E80E0080300F0080CC0F0080A5
:10102000F0030080F80300800004008008040080C2
:101030001004008018040080200400802804008030
:1010400030040080380400804004008048040080A0
:101050005004008058040080600400806804008010
:101060007004008078040080800400808804008080
:101070009004008098040080A0040080A8040080F0
:10108000B0040080B8040080C0040080C804008060
:10109000A80C0080780C0080240C0080D00B00800D
:040000058000000077
:00000001FF
