:0200000460009A
:100000006F00C0006F0000006F00C0029702000088
:10001000938282027390523073500030735040309C
:10002000970100209381017E17B1012013018122E5
:100030006F00001E130101F823201100232221006C
:10004000232431002326410023285100232A610064
:10005000232C7100232E8100232091022322A10250
:100060002324B1022326C1022328D102232AE1023C
:10007000232CF102232E0103232011052322210525
:10008000232431052326410523285105232A610510
:10009000232C7105232E8105232091072322A107FC
:1000A0002324B1072326C1072328D107232AE107E8
:1000B000232CF107F3221034232E5106732520340C
:1000C000F325103413060100EF00004E73101534B1
:1000D000B72200009382028073A0023083200100C7
:1000E00003214100832181000322C10083220101F9
:1000F00003234101832381010324C10183240102DD
:1001000003254102832581020326C10283260103C0
:1001100003274103832781030328C10383280104A4
:100120000329410483298104032AC104832A010588
:10013000032B4105832B8105032CC105832C01066C
:10014000032D4106832D8106032EC106832E010750
:10015000032F4107832F810713010108730020300B
:10016000130101FE232E8100130401022326A4FEA5
:100170002324B4FE2322C4FE6F00C0028327C4FEE2
:1001800003A70700832784FE23A0E7008327C4FE7C
:10019000938747002326F4FE832784FE9387470036
:1001A0002324F4FE032784FE832744FEE3F8E7FCC0
:1001B000130000000324C101130101026780000045
:1001C000130101FD2326810213040103232EA4FC45
:1001D000232CB4FC8327C4FD2326F4FE6F0080018A
:1001E0008327C4FE23A007008327C4FE938747000C
:1001F0002326F4FE0327C4FE832784FDE3F2E7FEF3
:10020000130000000324C1021301010367800000F2
:10021000130101FE232E1100232C8100130401027F
:10022000B7470060938707A82326F4FE8327C4FE00
:100230002320F4FE232204FE232404FE13860181DE
:10024000B707008093850700B7470060138507EF65
:10025000EFF01FF11386018993850181B747006094
:10026000138507F0EFF0DFEF938501911385018986
:10027000EFF01FF5B797018093850725138501914E
:10028000EFF01FF4930704FE938507001305100099
:10029000EF30806B130000008320C1010324810133
:1002A0001301010267800000130101FF2326810072
:1002B00013040101130000000324C1001301010114
:1002C00067800000130101FD23268102130401034E
:1002D000232EA4FCF32740F12326F4FE8327C4FE3B
:1002E0002324F4FE370700408327C4FD93D757002B
:1002F000832684FE93965600B386F600B717000057
:1003000093870780B387F60093972700B307F7001A
:1003100083A707002322F4FE8327C4FD93F7F70188
:1003200013071000B317F70093C7F7FF032744FE26
:10033000B377F7002322F4FE370700408327C4FD7C
:1003400093D75700832684FE93965600B386F60013
:10035000B717000093870780B387F60093972700AD
:10036000B307F700032744FE23A0E70013000000B3
:100370000324C1021301010367800000130101FE81
:10038000232E810013040102F32740F12326F4FEFB
:100390008327C4FE2324F4FE37070040832784FE0E
:1003A000938707209397C700B307F70083A74700F9
:1003B000138507000324C1011301010267800000B7
:1003C000130101FD2326810213040103232EA4FC43
:1003D000F32740F12326F4FE8327C4FE2324F4FEF2
:1003E00037070040832784FE938707209397C70031
:1003F000B307F7000327C4FD23A2E70013000000A2
:100400000324C1021301010367800000130101FEF0
:10041000232E81001304010293070008F3B707306D
:100420002326F4FEF37704302324F4FE13000000A7
:100430000324C1011301010267800000130101FEC2
:10044000232E810013040102F36704302326F4FEF7
:10045000130000000324C1011301010267800000A2
:10046000130101FE232E1100232C8100130401022D
:1004700093070008F3B747302326F4FEEF208029C6
:1004800037070044B7C70000B307F70003A8C7FF4A
:1004900083A787FF83A5018903A641893705004407
:1004A000732740F12324E4FE832884FEB386B7003B
:1004B000138306003333F3003307C800B307E300A8
:1004C00013870700938706001308070037170000FB
:1004D000130707803387E800131737003307E50059
:1004E0002320F7002322070193070008F3A74730D2
:1004F0002322F4FE130000008320C10103248101A4
:100500001301010267800000130101FE232E110078
:10051000232C810013040102EFF05FE62326A4FEE2
:10052000A30504FEB70700800327C4FE13172700A6
:1005300093870701B307F70083A70700E780070049
:1005400093070500A305F4FE0325C4FEEFF05FE763
:100550000347B4FE930710006316F7000325C4FE9B
:10056000EFF05FD6130000008320C1010324810156
:100570001301010267800000130101FF232611000F
:100580002324810013040101EF20C029B707004490
:1005900023A00700130000008320C1000324810072
:1005A0001301010167800000130101FB23261104E0
:1005B0002324810413040105232EA4FA232CB4FA66
:1005C0008327C4FB63D207020327C4FBB70700805D
:1005D00093C7F7FF3377F7009307B0006316F70070
:1005E000EFF09FF26F00800A8327C4FB63D20702FB
:1005F0000327C4FBB707008093C7F7FF3377F700E3
:10060000930770006316F700EFF09FE56F00000896
:100610008327C4FB63D207020327C4FBB70700800C
:1006200093C7F7FF3377F700930730006316F7009F
:10063000EFF09FF46F008005F32740342326F4FE8B
:100640008327C4FE2324F4FEF32730342322F4FE50
:10065000832744FE2320F4FEF3275030232EF4FC9E
:100660008327C4FD232CF4FCF3270034232AF4FC55
:10067000832744FD2328F4FCF32700302326F4FCD1
:100680008327C4FC2324F4FC73001000832784FB1D
:10069000138507008320C10403248104130101058D
:1006A00067800000130101FF23268100130401016C
:1006B00093070000138507000324C1001301010103
:1006C00067800000130101FF23268100130401014C
:1006D00093070000138507000324C10013010101E3
:1006E00067800000130101FF23268100130401012C
:1006F00093070000138507000324C10013010101C3
:1007000067800000130101FF23268100130401010B
:1007100093070000138507000324C10013010101A2
:1007200067800000130101FF2326810013040101EB
:1007300093070000138507000324C1001301010182
:1007400067800000130101FF2326810013040101CB
:1007500093070000138507000324C1001301010162
:1007600067800000130101FF2326810013040101AB
:1007700093070000138507000324C1001301010142
:1007800067800000130101FF23268100130401018B
:1007900093070000138507000324C1001301010122
:1007A00067800000130101FF23268100130401016B
:1007B00093070000138507000324C1001301010102
:1007C00067800000130101FF23268100130401014B
:1007D00093070000138507000324C10013010101E2
:1007E00067800000130101FF23268100130401012B
:1007F00093070000138507000324C10013010101C2
:1008000067800000130101FF23268100130401010A
:1008100093070000138507000324C10013010101A1
:1008200067800000130101FF2326810013040101EA
:1008300093070000138507000324C1001301010181
:1008400067800000130101FF2326810013040101CA
:1008500093070000138507000324C1001301010161
:1008600067800000130101FF2326810013040101AA
:1008700093070000138507000324C1001301010141
:1008800067800000130101FF23268100130401018A
:1008900093070000138507000324C1001301010121
:1008A00067800000130101FF23268100130401016A
:1008B00093070000138507000324C1001301010101
:1008C00067800000130101FF23268100130401014A
:1008D00093070000138507000324C10013010101E1
:1008E00067800000130101FF23268100130401012A
:1008F00093070000138507000324C10013010101C1
:1009000067800000130101FF232681001304010109
:1009100093070000138507000324C10013010101A0
:1009200067800000130101FF2326810013040101E9
:1009300093070000138507000324C1001301010180
:1009400067800000130101FF2326810013040101C9
:1009500093070000138507000324C1001301010160
:1009600067800000130101FF2326810013040101A9
:1009700093070000138507000324C1001301010140
:1009800067800000130101FF232681001304010189
:1009900093070000138507000324C1001301010120
:1009A00067800000130101FF232681001304010169
:1009B00093070000138507000324C1001301010100
:1009C00067800000130101FF232681001304010149
:1009D00093070000138507000324C10013010101E0
:1009E00067800000130101FF232681001304010129
:1009F00093070000138507000324C10013010101C0
:100A000067800000130101FF232681001304010108
:100A100093070000138507000324C100130101019F
:100A200067800000130101FF2326810013040101E8
:100A300093070000138507000324C100130101017F
:100A400067800000130101FE232E1100232C81007A
:100A500013040102F32700302326F4FE8327C4FE8B
:100A60002324F4FEEFF09F9A832784FE138507006A
:100A70008320C1010324810113010102678000006A
:100A8000130101FE232E8100130401022326A4FE7C
:100A90008327C4FE73900730130000000324C101B4
:100AA00013010102678000002320B5006780000069
:100AB0000325050067800000138E0600331EBE006C
:100AC000337ECE00032305009303060093C3F3FF98
:100AD000337373003363C301232065006780000014
:100AE000032505003375C5003355B5006780000048
:100AF0002310B50067800000031505006780000023
:100B0000138E0600331EBE00337ECE000313050095
:100B10009303060093C3F3FF337373003363C3017E
:100B20002310650067800000031505003375C500BC
:100B30003355B500678000002300B50067800000D2
:100B40000305050067800000138E0600331EBE00FB
:100B5000337ECE00030305009303060093C3F3FF27
:100B6000337373003363C3012300650067800000A3
:100B7000030505003375C5003355B50067800000D7
:100B8000130101FD23261102232481021304010312
:100B9000232EA4FC232CB4FC930706001387060025
:100BA000231BF4FC93070700A30AF4FC8327C4FD6E
:100BB000638A070C034754FD9307700063E4E70C56
:100BC000035764FDB7270000637EF70A832784FD7F
:100BD00013878700835764FD93F7F70F938507000A
:100BE00013050700EFF05FF5832784FD9386C700A8
:100BF000034754FD835764FD93D7574093F7877F8E
:100C0000B367F7009385070013850600EFF0DFF266
:100C10008327C4FD032784FD23A0E7008327C4FDA9
:100C200083A707009387070113850700EFF05FF1A3
:100C30009307050093F72700A307F4FE6F008003D6
:100C40008327C4FD83A70700938747001385070008
:100C5000EFF01FEF8327C4FD83A7070093870701E9
:100C600013850700EFF0DFED9307050093F72700EA
:100C7000A307F4FE8347F4FEE39407FC8327C4FD37
:100C800023820700130000008320C1020324810295
:100C90001301010367800000130101FD23261102E7
:100CA0002324810213040103232EA4FC232CB4FC6F
:100CB000232AC4FC8327C4FD63800708832784FD9F
:100CC000638C0706832744FD63880706232604FEFA
:100CD0006F00C0058327C4FD83A707009387070122
:100CE00013850700EFF0DFE59307050093F7170082
:100CF000A305F4FE8347B4FEE38E07FC8327C4FDFF
:100D000083A60700032784FD8327C4FEB307F700EB
:100D100083C707009385070013850600EFF0DFE126
:100D20008327C4FE938717002326F4FE0327C4FEFF
:100D3000832744FDE360F7FA130000008320C1021B
:100D4000032481021301010367800000130101FDE8
:100D5000232611022324810213040103232EA4FC61
:100D6000232CB4FC8327C4FD63800708832784FDFC
:100D7000638C0706232604FE6F00C0058327C4FD8D
:100D800083A707009387070113850700EFF05FDB58
:100D90009307050093F71700A305F4FE8347B4FEFD
:100DA000E38E07FC8327C4FD83A60700032784FD89
:100DB0008327C4FEB307F70083C7070093850700A6
:100DC00013850600EFF05FD78327C4FE93871700D3
:100DD0002326F4FE032784FD8327C4FEB307F70010
:100DE00083C70700E39C07F8130000008320C102BB
:100DF000032481021301010367800000130101FD38
:100E0000232611022324810213040103232EA4FCB0
:100E1000232CB4FC930706002328D4FCA30BF4FC7A
:100E2000832704FD2326F4FEEFF0DFC12324A4FE74
:100E30001306C006930500000325C4FDEF10904A79
:100E40008327C4FD032784FD23A0E700834774FDA7
:100E5000139717008327C4FD23A2E7008327C4FD4F
:100E600083A70700930600001306000493056000A3
:100E700013850700EFF05FCD8327C4FD83A707002C
:100E80009306100013060004930560001385070005
:100E9000EFF09FCB8327C4FD03A707008327C4FE81
:100EA00093D7270093F717009386070013060008CF
:100EB0009305700013050700EFF01FC98327C4FDD9
:100EC00003A707008327C4FE93D7170093F71700E3
:100ED00093860700130620009305100013050700F2
:100EE000EFF09FC68327C4FD03A707008327C4FE36
:100EF00093F7170093860700130610009305000070
:100F000013050700EFF05FC48327C4FD83A7070024
:100F10001387C7008327C4FD83A747009385070075
:100F200013050700EFF05FC18327C4FD83A7070007
:100F30001387C7018327C4FD83A747009385070054
:100F400013050700EFF05FBF032584FEEFF05FB3EA
:100F5000130000008320C102032481021301010356
:100F600067800000130101FD232611022324810262
:100F700013040103232EA4FC93870500232AC4FC39
:100F8000A30DF4FC93870600231CF4FC93070700D1
:100F9000230DF4FCEFF01FAB2326A4FE8327C4FD32
:100FA00083C7C700639807008327C4FD1307100099
:100FB0002386E7008327C4FD130710002385E70677
:100FC0008347B4FD139717008327C4FD23A4E700CC
:100FD0008327C4FD23A207028327C4FD032744FD02
:100FE00023ACE700035784FD8327C4FD23AEE7004D
:100FF0008327C4FD23A007028327C4FD1307100025
:1010000023AAE7028327C4FD0347A4FD238AE70040
:101010008327C4FD03A7470593071000631AF70051
:101020008327C4FD13071000A384E7066F000002A6
:101030008327C4FD83A70700930610001306000250
:101040009305500013850700EFF01FB08327C4FD00
:1010500003C78706930710006310F7028327C4FDB8
:1010600083A7070093060000130680009305300055
:1010700013850700EFF05FAD8327C4FD83A707004A
:101080009387470013850700EFF09FAB9307050098
:10109000A305F4FE8347B4FE93F7F70FA305F4FE10
:1010A0000325C4FDEF00503D0325C4FEEFF05F9D16
:1010B000130000008320C1020324810213010103F5
:1010C00067800000130101FD232611022324810201
:1010D00013040103232EA4FC93870500232AC4FCD8
:1010E000A30DF4FC93870600231CF4FC9307070070
:1010F000230DF4FCEFF01F952326A4FE8327C4FDE7
:1011000083C7C700639807008327C4FD1307200027
:101110002386E7008327C4FD130720002385E70605
:101120008347B4FD139717008327C4FD23A4E7006A
:101130008327C4FD1307100023A2E7028327C4FD01
:10114000032744FD23A4E702035784FD8327C4FD3E
:1011500023A6E7028327C4FD23A807028327C4FD33
:101160001307100023AAE7028327C4FD0347A4FD49
:10117000238AE7008327C4FD03A7470593071000D0
:10118000631AF7008327C4FD13071000A384E70642
:101190006F0000028327C4FD83A707009306100099
:1011A000130600029305500013850700EFF0DF9946
:1011B0008327C4FD03C78706930710006310F70257
:1011C0008327C4FD83A70700930600001306800051
:1011D0009305300013850700EFF01F978327C4FDA8
:1011E00083A707009387470013850700EFF05F95FB
:1011F00093070500A305F4FE8347B4FE93F7F70FAA
:10120000A305F4FE0325C4FDEF0010270325C4FE4B
:10121000EFF01F87130000008320C1020324810226
:101220001301010367800000130101FE232E11004A
:10123000232C8100130401022326A4FE8327C4FE6D
:1012400083C70706638007028327C4FE83A70700BE
:101250009306100013064000930520001385070035
:10126000EFF09F8E130000008320C1010324810151
:101270001301010267800000130101FD2326110202
:10128000232481022322910213040103232EA4FCB0
:1012900093071000A307F4FE8327C4FD83A707006C
:1012A0009387470013850700EFF09F899307050098
:1012B000A303F4FE834774FE93F7F70F938787FF2A
:1012C0001307800DE360F70C13972700B747006002
:1012D000938787A8B307F70083A7070067800700F5
:1012E0008327C4FD83A707009306000013060002AE
:1012F0009305500013850700EFF01F858327C4FD79
:1013000083A70700138787008327C4FD83A787006F
:101310009385070013050700EFF01F828327C4FDA4
:1013200083A70700138787008327C4FD83A747028D
:1013300093860700130610009305000013050700AD
:10134000EFF09F808327C4FD83A7470263980700BF
:101350008327C4FD23A007026F00C0008327C4FDBC
:1013600023A807028327C4FD83C797066386070067
:101370008327C4FDA38407068327C4FD03C7C700D2
:101380008327C4FD83C7A706E306F7068327C4FDAA
:1013900003C7A7068327C4FD2386E7006F009005D7
:1013A0008327C4FD83A707009306100013060002DD
:1013B0009305500013850700EFF00FF96F005006FA
:1013C0008327C4FD83A707009306100013060001BE
:1013D0009305400013850700EFF00FF78327C4FD46
:1013E0001307200023AAE7028327C4FD23860700F2
:1013F0000325C4FDEFF05FE36F0090028327C4FD77
:1014000003A707028327C4FD83A7C7016370F704FE
:101410008327C4FD83A70700138587008327C4FDA6
:1014200003A787018327C4FD83A70702138617003C
:101430008326C4FD23A0C602B307F70083C70700B5
:1014400093850700EFF04FEF6F00807D8327C4FD89
:1014500003C7C700930730006318F7028327C4FD52
:101460001307100023A2E7028327C4FD83A7070008
:101470009306100013060002930550001385070021
:10148000EFF08FEC6F00C0798327C4FD238607003F
:101490008327C4FD83C7470193F717002307F4FE92
:1014A0008327C4FD0347E4FE2384E7068347E4FE65
:1014B000639607028327C4FD83A7070093061000E5
:1014C000130600019305400013850700EFF0CFE7F6
:1014D0000325C4FDEFF05FD56F0000010325C4FDB7
:1014E000EF00807BA30704FE8327C4FD23AA070225
:1014F0006F0000738327C4FD83A7070093061000C5
:10150000130600019305400013850700EFF0CFE3B9
:101510008327C4FD1307200023AAE7028327C4FD05
:10152000238607000325C4FDEFF01FD06F00406F36
:101530008327C4FD03A7C7029307100063F2E702E5
:101540008327C4FD83A707009306100013064000FD
:101550009305200013850700EFF00FDF6F00406C4C
:101560008327C4FD03A7C702930710006312F70285
:101570008327C4FD83A707009306000013064000DD
:101580009305200013850700EFF00FDC6F00406922
:101590008327C4FD83A707009306100013064000AD
:1015A0009305200013850700EFF00FDA8327C4FDB1
:1015B00083A707009306100013060001930540005F
:1015C00013850700EFF04FD88327C4FD23AA070235
:1015D0008327C4FD238607006F0080648327C4FD32
:1015E00083A707009306100013060001930540002F
:1015F00013850700EFF04FD58327C4FD13072000A4
:1016000023AAE7028327C4FD238607000325C4FD20
:10161000EFF09FC16F00C0608327C4FD83A7070060
:10162000938587008327C4FD03A787028327C4FD12
:1016300083A70703138617008326C4FD23A8C602C9
:10164000B304F70013850500EFF08FCF9307050073
:101650002380F4008327C4FD03A707038327C4FD69
:1016600083A7C7029387F7FF636AF7588327C4FDF0
:1016700083A707009306000013064000930520008F
:1016800013850700EFF04FCC6F0040578327C4FD50
:1016900083A70700938687008327C4FD03A78702DB
:1016A0008327C4FD83A70703B304F700138506004F
:1016B000EFF00FC9930705002380F4008327C4FDD2
:1016C00083C7470193F717002307F4FE8327C4FD60
:1016D0000347E4FE2384E7068347E4FE639607029C
:1016E0008327C4FD83A7070093061000130600019B
:1016F0009305400013850700EFF00FC50325C4FDD7
:10170000EFF09FB26F0000010325C4FDEF00C05849
:10171000A30704FE8327C4FD238607008327C4FD97
:1017200023AA07026F00C04F8327C4FD83A70700C9
:101730009306100013064000930520001385070050
:10174000EFF08FC08327C4FD238607008327C4FDE5
:1017500023AA07048327C4FD83C797066384074A27
:101760008327C4FD83A70700930610001306000219
:101770009305500013850700EFF00FBD6F00804800
:101780008327C4FD13071000A384E7068327C4FD45
:10179000130740002386E7008327C4FD23A807041E
:1017A0008327C4FD23A807008327C4FD83A7070060
:1017B000130600029305500013850700EFF04FBB9E
:1017C00093070500638607028327C4FD83A70700EC
:1017D00093060000130600029305500013850700CE
:1017E000EFF08FB68327C4FD13071000A384E7062C
:1017F0008327C4FD1307100023AAE7046F004042AB
:101800008327C4FD83A78704638C07068327C4FD51
:1018100003A707058327C4FD83A7C7046372F706E0
:101820008327C4FD83A707009387870013850700DC
:10183000EFF00FB193070500A306F4FE8327C4FD64
:1018400003A787048327C4FD83A707051386170012
:101850008326C4FD23A8C604B307F7000347D4FEBC
:101860002380E7008327C4FD83A707011397870020
:101870008347D4FE3307F7008327C4FD23A8E7007E
:101880008327C4FD03A707058327C4FD83A7C704D7
:10189000636EF7368327C4FD83A707009306000015
:1018A000130640009305200013850700EFF0CFA931
:1018B0006F00C0358327C4FD03C7C70093074000EE
:1018C0006312F70C8327C4FD03A707058327C4FD14
:1018D00083A78705631AF7008327C4FD03A70701C1
:1018E0008327C4FD23A2E7048327C4FD83A7C7057C
:1018F000638A07068327C4FD83A6C7058327C4FD23
:1019000003A787048327C4FD83A7070593970701CF
:1019100093D7070113860700930507000325C4FD2D
:10192000E78006002324A4FE832784FE6398070033
:101930000325C4FDEFF05F8F6F00C0058327C4FD52
:1019400083A70700930600001306400093052000BC
:1019500013850700EFF04F9F8327C4FD2380070600
:101960006F0040038327C4FD83A707009306100080
:10197000130640009305200013850700EFF0CF9C6D
:101980006F0040018327C4FD23A207040325C4FD83
:10199000EFF09F898327C4FD23AA07048327C4FD92
:1019A00083C79706638007028327C4FD83A70700C8
:1019B00093061000130600029305500013850700DC
:1019C000EFF08F988327C4FD238607006F00402522
:1019D0008327C4FD238607008327C4FD23A20704B1
:1019E0008327C4FD03A74705930710006318F7007A
:1019F0008327C4FD1307200023AAE7040325C4FDA1
:101A0000EFF09F826F00C021834774FE13F7F70F3A
:101A10009307800A6316F7068327C4FD1307500057
:101A20002386E7008327C4FD23A807008327C4FD7E
:101A30001307100023AAE7048327C4FD83A7070028
:101A4000130600029305500013850700EFF04F9234
:101A500093070500638607028327C4FD83A7070059
:101A6000930600001306000293055000138507003B
:101A7000EFF08F8D8327C4FD13071000A384E706C2
:101A80008327C4FD03A747048327C4FD83A7070456
:101A90006360F7028327C4FD83A70700938787004D
:101AA0009305F00F13850700EFF00F896F00C00357
:101AB0008327C4FD83A70700138587008327C4FD00
:101AC00003A7C7038327C4FD83A747041386170012
:101AD0008326C4FD23A2C604B307F70083C707000B
:101AE00093850700EFF04F858327C4FD03A74704C4
:101AF0008327C4FD83A70704636EF7108327C4FD03
:101B000083A70700930600001306400093052000FA
:101B100013850700EFF04F838327C4FD23A207043A
:101B20006F00400F8327C4FD23A207048327C4FD51
:101B300083A70700930610001306400093052000BA
:101B400013850700EFF04F808327C4FD23AA070405
:101B50008327C4FD83C79706638007028327C4FDDC
:101B600083A7070093061000130600029305500098
:101B700013850700EFE05FFD8327C4FD2386070080
:101B80006F00000A8327C4FD83A7070093060000A7
:101B9000130600029305500013850700EFE0DFFAFB
:101BA0008327C4FD238607008327C4FD23A20704DF
:101BB0008327C4FD03A74703930710006318F700AA
:101BC0008327C4FD1307200023AAE7028327C4FD4F
:101BD00003A74705930710006312F7048327C4FD8A
:101BE0001307200023AAE7046F004003130000003E
:101BF0006F000003130000006F008002130000005C
:101C00006F000002130000006F008001130000004D
:101C10006F000001130000006F008000130000003F
:101C20008347F4FE638007028327C4FD83A7070070
:101C3000930600001306800093053000138507000B
:101C4000EFE09FF08327C4FD83A707009387470039
:101C500013850700EFE0DFEE93070500A303F4FE12
:101C6000130000008320C102032481028324410267
:101C70001301010367800000130101FE232E810080
:101C8000130401022326A4FE130000000324C10153
:101C90001301010267800000130101FE232E810061
:101CA000130401022326A4FE130000000324C10133
:101CB0001301010267800000130101FD23261102B8
:101CC0002324810213040103232EA4FC232CB4FC3F
:101CD000232AC4FCA30704FE832784FD2324F4FEE7
:101CE0008327C4FD032784FD23A0E7008327C4FDC9
:101CF000032744FD23A2E700A30704FE832784FDF6
:101D00002324F4FE6F00800293050000032584FE67
:101D1000EFE09FE2832784FE938747002324F4FEAD
:101D20008347F4FE93871700A307F4FE0347F4FEEE
:101D30009307F001E3FAE7FC8327C4FD83A747007C
:101D4000130710006386E70263820706130720006B
:101D50006390E70C8327C4FD83A7070093870708D8
:101D60009305F0FF13850700EFE01FD46F00800A92
:101D70008327C4FD83A7070013870708B70701005F
:101D80009385F7FF13050700EFE09FD68327C4FD77
:101D900083A7070013874708B70701009385F7FF5C
:101DA00013050700EFE0DFD46F00C0068327C4FDF2
:101DB00083A70700938707089305F00F1385070093
:101DC000EFE09FD78327C4FD83A7070093874708C9
:101DD0009305F00F13850700EFE01FD68327C4FD9E
:101DE00083A70700938787089305F00F13850700E3
:101DF000EFE09FD48327C4FD83A707009387C7081C
:101E00009305F00F13850700EFE01FD36F008000EC
:101E100013000000130000008320C102032481028C
:101E20001301010367800000130101FD2326110245
:101E30002324810213040103232EA4FC232CB4FCCD
:101E400093070600A30BF4FC8327C4FD83A7470078
:101E5000130710006386E708638E0712130720003C
:101E60006394E71E8327C4FD83A707009387070AAF
:101E700013850700EFE0DFC32326A4FE834774FD2C
:101E800063940702832784FD13071000B317F7003C
:101E900093C7F7FF138707008327C4FEB3F7E70054
:101EA0002326F4FE6F000002832784FD1307100031
:101EB000B317F700138707008327C4FEB3E7E700D3
:101EC0002326F4FE8327C4FD83A707009387070A10
:101ED0008325C4FE13850700EFE01FBD6F000017C8
:101EE0008327C4FD03A70700832784FD93D74700FA
:101EF00093972700B307F7009387070A2322F4FE7E
:101F0000032544FEEFE05FBF930705002315F4FEB1
:101F1000834774FD63900704832784FD93F7F700DC
:101F200013071000B317F7009397070193D70741E2
:101F300093C7F7FF13970701135707418317A4FEB1
:101F4000B377F7009397070193D707412315F4FE62
:101F50006F000003832784FD93F7F7001307100039
:101F6000B317F70013970701135707418317A4FE10
:101F7000B367F7009397070193D707412315F4FE42
:101F80008357A4FE93850700032544FEEFE05FB668
:101F90006F00C00B8327C4FD03A70700832784FDC0
:101FA00093D7370093972700B307F7009387070A63
:101FB0002320F4FE032504FEEFE09FB893070500FD
:101FC000A304F4FE834774FD63900704832784FD14
:101FD00093F7770013071000B317F7009397870163
:101FE00093D7874193C7F7FF13978701135787410B
:101FF000830794FEB377F7009397870193D78741C0
:10200000A304F4FE6F000003832784FD93F7770099
:1020100013071000B317F700139787011357874171
:10202000830794FEB367F7009397870193D787419F
:10203000A304F4FE834794FE93850700032504FE62
:10204000EFE09FAF6F00800013000000130000005E
:102050008320C10203248102130101036780000071
:10206000130101FD2326110223248102130401031D
:10207000232EA4FC232CB4FC8327C4FD83A70700D4
:102080002326F4FE032784FD9307F00163E0E704B1
:10209000832784FD939727000327C4FEB307F70027
:1020A0002326F4FE0325C4FEEFE09FA99307050055
:1020B0002324F4FE832784FE93E787002324F4FE81
:1020C000832584FE0325C4FEEFE01FA71300000054
:1020D0008320C102032481021301010367800000F1
:1020E000130101FC232E1102232C8102130401048D
:1020F0002326A4FC232204FEEF00105883A7818A24
:1021000063980700EF0040281307100023A4E18A1A
:102110008327C4FC638A07029307800013870700A4
:102120008327C4FCB387E7002326F4FC8327C4FC81
:1021300093F73700638A07008327C4FC93F7C7FF30
:10214000938747002326F4FC8327C4FC6384071489
:102150000327C4FCB79701009387B7FF63ECE7122E
:10216000938781892324F4FE83A781892326F4FEA3
:102170006F0080018327C4FE2324F4FE8327C4FE5E
:1021800083A707002326F4FE8327C4FE83A7470006
:102190000327C4FC63F8E7008327C4FE83A7070076
:1021A000E39A07FC0327C4FE9387018A6304F70EB2
:1021B000832784FE83A7070013078000B387E70007
:1021C0002322F4FE8327C4FE03A70700832784FE8F
:1021D00023A0E7008327C4FE03A747008327C4FC8E
:1021E000B307F74013078000131717006376F7084B
:1021F0000327C4FE8327C4FCB307F700232EF4FC97
:102200008327C4FE03A747008327C4FC3307F74096
:102210008327C4FD23A2E7008327C4FE0327C4FC51
:1022200023A2E7008327C4FD83A74700232CF4FCE7
:10223000938781892320F4FE6F000001832704FE29
:1022400083A707002320F4FE832704FE83A707004B
:1022500083A74700032784FDE3E2E7FE832704FE0C
:1022600003A707008327C4FD23A0E700832704FEFC
:102270000327C4FD23A0E700B707008003A70700DA
:102280008327C4FE83A747003307F740B7070080C2
:1022900023A0E700EF00D040832744FE63940700AB
:1022A000EF100076832744FE138507008320C103C7
:1022B000032481031301010467800000130101FD61
:1022C000232611022324810213040103232EA4FCDC
:1022D0008327C4FD2324F4FE8327C4FD638C0708F1
:1022E00093078000B307F040032784FEB307F7008D
:1022F0002324F4FE832784FE2322F4FEEF00D0374C
:10230000832744FE83A747002320F4FE9387818917
:102310002326F4FE6F0000018327C4FE83A7070075
:102320002326F4FE8327C4FE83A7070083A7470064
:10233000032704FEE3E2E7FE8327C4FE03A70700AA
:10234000832744FE23A0E7008327C4FE032744FE1F
:1023500023A0E700832744FE03A74700B7070080B8
:1023600083A707003307F700B707008023A0E70023
:10237000EF001033130000008320C1020324810208
:102380001301010367800000130101FE232E810069
:1023900013040102B70700809387471193F7C7FF23
:1023A0002326F4FE0327C4FE23ACE18893878189AA
:1023B00023A207009387018A379701001307C7FFFD
:1023C00023A2E70023A0018A8327C4FE2324F4FE6E
:1023D000832784FE379701001307C7FF23A2E70076
:1023E000832784FE1387018A23A0E70013000000DF
:1023F0000324C1011301010267800000130101FEE3
:10240000232E810013040102F32740F12326F4FE5A
:102410008327C4FE2324F4FEF36744302322F4FE12
:1024200037070044832784FE93972700B307F700FC
:102430001307100023A0E700130000000324C101CC
:102440001301010267800000130101FF23268100B0
:102450001304010173700430B707008083A747009D
:1024600013871700B707008023A2E70013000000BE
:102470000324C1001301010167800000130101FF63
:102480002326810013040101B707008083A74700BA
:102490001387F7FFB707008023A2E700B707008084
:1024A00083A74700639407007360043013000000A3
:1024B0000324C1001301010167800000130101FE24
:1024C000232E8100130401023706008003268600B4
:1024D000032606002324C4FE232604FE37060080BC
:1024E0000326860003264600930606001307000015
:1024F0001398060093070000032784FE3367F70054
:102500002324E4FE0327C4FEB36707012326F4FE59
:10251000832684FE0327C4FEB7C5000093850535D6
:1025200013060000B387B600138507003335D500C6
:102530003308C70033070501130807002324F4FEFE
:10254000232604FFB707008083A7C700032784FE64
:1025500023A0E7008327C4FE13D3070093030000E2
:10256000B707008083A7C7001307030023A2E70073
:102570009307000873A04730130000000324C10133
:102580001301010267800000130101FE232E810068
:102590001304010237060080032686000326060086
:1025A0002324C4FE232604FE37060080032686006B
:1025B0000326460093060600130700001398060042
:1025C00093070000032784FE3367F7002324E4FE0B
:1025D0000327C4FEB36707012326F4FE832684FE87
:1025E0000327C4FEB7C50000938505351306000018
:1025F000B387B600138507003335D5003308C7000D
:1026000033070501130807002324F4FE232604FFE3
:10261000B707008083A7C700032784FE23A0E70035
:102620008327C4FE13D3070093030000B70700807D
:1026300083A7C7001307030023A2E700930700083E
:1026400073A04730130000000324C10113010102ED
:1026500067800000130101FF23268100130401019C
:10266000B707008003A747009307F0FF6306F70052
:10267000737004306F000000737004306F0000004E
:10268000130101FE232E8100130401022326A4FE60
:102690002324B4FE2322C4FE8327C4FE9387C7FFEE
:1026A0002326F4FE032784FE8327C4FE23A0E7002D
:1026B0008327C4FE938787FA2326F4FE032744FE6C
:1026C0008327C4FE23A0E7008327C4FE938787FEE9
:1026D0002326F4FE93870100138707008327C4FE97
:1026E00023A0E7008327C4FE938747FF2326F4FE39
:1026F000B7270060138747658327C4FE23A0E70040
:102700008327C4FE138507000324C10113010102BE
:1027100067800000130101FF23261100232481009C
:102720001304010183A2018B23A0C200EFF01FD983
:10273000EF00100D9307050063840700EF00102BD6
:1027400003A1018B032101008322C107739012347E
:10275000832001000322C1008322010103234101E0
:10276000832381010324C101832401020325410243
:10277000832581020326C102832601030327410327
:10278000832781030328C10383280104032941040B
:1027900083298104032AC104832A0105032B4105EF
:1027A000832B8105032CC105832C0106032D4106D3
:1027B000832D8106032EC106832E0107032F4107B7
:1027C000832F8107130101087300203013000000DC
:1027D0008320C100032481001301010167800000F0
:1027E000130101FF2326110023248100130401019A
:1027F000EFF09FD9B707008023A20700130710004E
:1028000023A6E18AEFD09FC3EFF05FBF93070000DC
:10281000138507008320C1000324810013010101F7
:1028200067800000130101FF23261100232481008B
:102830001304010103A7C18A930710006318F7006E
:102840001307200023A6E18A6F00000183A2018BF9
:1028500023A0C200EF00901903A1018B0321010006
:102860008322C10773901234832001000322C10028
:102870008322010103234101832381010324C10138
:102880008324010203254102832581020326C1021C
:102890008326010303274103832781030328C10300
:1028A000832801040329410483298104032AC104E4
:1028B000832A0105032B4105832B8105032CC105C8
:1028C000832C0106032D4106832D8106032EC106AC
:1028D000832E0107032F4107832F8107130101086E
:1028E0001301C1FF23205100B702004423A00200BE
:1028F0008322010013014100730020301300000007
:102900008320C100032481001301010167800000BE
:10291000130101FF23261100232481001304010168
:10292000EFF0DFAD130000008320C100032481001D
:102930001301010167800000130101FE232E8100B5
:10294000130401022326A4FE8327C4FE13878700F5
:102950008327C4FE23A2E7008327C4FE1307F0FFEA
:1029600023A4E7008327C4FE138787008327C4FEC0
:1029700023A6E7008327C4FE138787008327C4FEAE
:1029800023A8E7008327C4FE23A00700130000004C
:102990000324C1011301010267800000130101FE3D
:1029A000232E8100130401022326A4FE8327C4FEE4
:1029B00023A80700130000000324C1011301010232
:1029C00067800000130101FD232681021304010327
:1029D000232EA4FC232CB4FC8327C4FD83A747002B
:1029E0002326F4FE832784FD0327C4FE23A2E700E9
:1029F0008327C4FE03A78700832784FD23A4E70061
:102A00008327C4FE83A78700032784FD23A2E70052
:102A10008327C4FE032784FD23A4E700832784FDC6
:102A20000327C4FD23A8E7008327C4FD83A707006D
:102A3000138717008327C4FD23A0E70013000000BD
:102A40000324C1021301010367800000130101FD8B
:102A50002326810213040103232EA4FC8327C4FD33
:102A600083A707012326F4FE8327C4FD83A747001D
:102A70000327C4FD0327870023A4E7008327C4FDA1
:102A800083A787000327C4FD0327470023A2E7008D
:102A90008327C4FE83A747000327C4FD631AF700FA
:102AA0008327C4FD03A787008327C4FE23A2E70072
:102AB0008327C4FD23A807008327C4FE83A707003C
:102AC0001387F7FF8327C4FE23A0E7008327C4FEF4
:102AD00083A70700138507000324C1021301010324
:102AE00067800000130101FD232681021304010306
:102AF000232EA4FC232CB4FC232AC4FC0327C4FDEE
:102B0000832744FDB367F70093F737006398070600
:102B1000832784FD93F7F70F2322F4FE832744FED7
:102B200093978700032744FEB367F7002322F4FE40
:102B3000832744FE93970701032744FEB367F700FA
:102B40002322F4FE8327C4FD2326F4FE6F008001B8
:102B50008327C4FE138747002326E4FE032744FE91
:102B600023A0E7000327C4FD832744FDB307F70034
:102B70000327C4FEE36EF7FC6F0000048327C4FD47
:102B80002324F4FE6F000002832784FE13871700BE
:102B90002324E4FE032784FD13178701135787417D
:102BA0002380E7000327C4FD832744FDB307F70014
:102BB000032784FEE36AF7FC8327C4FD138507001F
:102BC0000324C1021301010367800000130101FC0B
:102BD000232E1102232C810213040104232EA4FCB2
:102BE000232CB4FC2328D4FC2326E4FC2324F4FC6B
:102BF000232204FD232014FD93070600231BF4FC6D
:102C00008327C4FD63960700737004306F000000D3
:102C10000327C4FC9307400063F6E7007370043099
:102C20006F000000835764FD832544FC1385070073
:102C3000EF0050172324A4FE832784FE6382071627
:102C4000832784FE03A70703835664FDB70700406C
:102C50009387F7FFB387F60093972700B307F70032
:102C60002322F4FE832744FE93F7C7FF2322F4FEBA
:102C7000832744FE93F737006386070073700430A0
:102C80006F000000835764FD13870700832604FC50
:102C90000326C4FC832584FD032584FEEF00006722
:102CA000032604FD8325C4FD032544FEEFF05F9D4C
:102CB00013070500832784FE23A0E700832784FCF5
:102CC00063880700832784FC032784FE23A0E70092
:102CD000EFF08FF783A7018C1387170023A0E18CF7
:102CE00083A7018B63900702032784FE23A8E18A50
:102CF00003A7018C930710006316F702EF0080749E
:102D00006F00400283A7C18C639E070083A7018BDD
:102D100083A7C7020327C4FC6366F700032784FE6A
:102D200023A8E18A83A7C18D1387170023AEE18C06
:102D300003A7C18D832784FE23A4E704832784FE91
:102D400003A7C70283A7818C63F8E700832784FE6B
:102D500003A7C70223A4E18C832784FE03A7C7022D
:102D60009307070093972700B387E70093972700FF
:102D700037970180130707113387E700832784FE05
:102D8000938747009385070013050700EFF09FC363
:102D9000930710002326F4FEEFF04FEE6F00C00003
:102DA0009307F0FF2326F4FE0327C4FE93071000C9
:102DB0006310F70283A7C18C638C070083A7018B84
:102DC00083A7C7020327C4FC63F4E700EFF05FB4F6
:102DD0008327C4FE138507008320C10303248103D6
:102DE0001301010467800000130101FE232E11006E
:102DF000232C810013040102930800001308000033
:102E0000930700001307000093060000130600401C
:102E1000B74500609385C5DE373500601305852D05
:102E2000EFF0DFDA2326A4FE0327C4FE9307100089
:102E30006312F702737004301307F0FF23A0E18ED2
:102E40001307100023A6E18C23A2018CEFF05F99F9
:102E50006F0040018327C4FE63960700737004303F
:102E60006F000000130000008320C10103248101D2
:102E70001301010267800000130101FF2326810076
:102E80001304010183A7418E1387170023A2E18E4B
:102E9000130000000324C10013010101678000003A
:102EA000130101FE232E1100232C810013040102C3
:102EB000232604FE83A7418E6396070073700430B7
:102EC0006F000000EFF04FD883A7418E1387F7FF04
:102ED00023A2E18E83A7418E6396071083A7018CFE
:102EE000638207106F00800AB79701809387C71924
:102EF00083A7C70083A7C7002324F4FE832784FE8B
:102F00009387870113850700EFF05FB4832784FE62
:102F10009387470013850700EFF05FB3832784FE94
:102F200003A7C70283A7818C63F8E700832784FE89
:102F300003A7C70223A4E18C832784FE03A7C7024B
:102F40009307070093972700B387E700939727001D
:102F500037970180130707113387E700832784FE23
:102F6000938747009385070013050700EFF09FA59F
:102F7000832784FE03A7C70283A7018B83A7C70209
:102F80006366F7001307100023AAE18CB79701804E
:102F900083A7C719E39A07F483A7018D6388070203
:102FA0006F004002EF00C00593070500638607002D
:102FB0001307100023AAE18C83A7018D1387F7FF65
:102FC00023A8E18C83A7018DE39E07FC03A7418D15
:102FD000930710006318F700930710002326F4FEF0
:102FE000EFF01F93EFF08FC98327C4FE138507000E
:102FF0008320C101032481011301010267800000C5
:10300000130101FD2326110223248102130401036D
:10301000232604FE83A7418E6390071A83A7418C61
:103020001387170023A2E18C83A7418C2324F4FE8D
:10303000832784FE6390070483A7418B83A707003F
:1030400063860700737004306F00000083A7418B14
:103050002322F4FE03A7818B23AAE18A032744FEDF
:1030600023ACE18A83A7818D1387170023ACE18C01
:10307000EF00406383A7018E032784FE6360F7108F
:1030800083A7418B83A7070063960700930710006F
:103090006F00800093070000638807001307F0FFAC
:1030A00023A0E18E6F00800D83A7418B83A7C7000B
:1030B00083A7C7002320F4FE832704FE83A74700CD
:1030C000232EF4FC032784FE8327C4FD6378F700D6
:1030D0000327C4FD23A0E18E6F00400A832704FE6E
:1030E0009387470013850700EFF05F96832704FE60
:1030F00083A78702638A0700832704FE93878701DB
:1031000013850700EFF09F94832704FE03A7C702EF
:1031100083A7818C63F8E700832704FE03A7C70217
:1031200023A4E18C832704FE03A7C70293070700AB
:1031300093972700B387E70093972700379701807D
:10314000130707113387E700832704FE938747009F
:103150009385070013050700EFF0DF86832704FE41
:1031600003A7C70283A7018B83A7C702E36AF7F00F
:10317000930710002326F4FE6FF09FF083A7018BC6
:1031800003A7C702B796018093070700939727000C
:10319000B387E7009397270013870611B387E700EB
:1031A00003A707009307100063FEE70093071000D2
:1031B0002326F4FE6F00000183A7018D13871700FB
:1031C00023A8E18C83A7418D638607009307100035
:1031D0002326F4FE8327C4FE138507008320C10243
:1031E000032481021301010367800000130101FE23
:1031F000232E81001304010283A7418E63880700F8
:103200001307100023AAE18C6F00000C23AA018C85
:103210006F00000283A7818C6396070073700430EF
:103220006F00000083A7818C1387F7FF23A4E18C34
:1032300003A7818CB7960180930707009397270017
:10324000B387E7009397270013870611B387E7003A
:1032500083A70700E38007FC03A7818C930707007F
:1032600093972700B387E70093972700379701804C
:1032700013070711B387E7002326F4FE8327C4FE54
:1032800083A7470003A747008327C4FE23A2E700C4
:103290008327C4FE03A747008327C4FE93878700C4
:1032A000631CF7008327C4FE83A7470003A74700DA
:1032B0008327C4FE23A2E7008327C4FE83A7470019
:1032C00003A7C70023A8E18A130000000324C1015B
:1032D0001301010267800000130101FE232E11007B
:1032E000232C8100130401022326A4FEEF00802179
:1032F000B797018003A707119307100063F4E70055
:10330000EFF00FE1EF0000716FF05FFE130101FCC1
:10331000232E1102232C810213040104232EA4FC6A
:10332000232CB4FC232AC4FC2328D4FC93070700D5
:103330002317F4FC232604FE6F004004032784FDBA
:103340008327C4FEB307F700038707008326C4FD65
:103350008327C4FEB387F600238AE702032784FD90
:103360008327C4FEB307F700838707006380070243
:103370008327C4FE938717002326F4FE0327C4FE89
:103380009307F000E3FCE7FA6F00800013000000F1
:103390008327C4FDA3810704032744FD930740004E
:1033A00063F6E70093074000232AF4FC8327C4FD5B
:1033B000032744FD23A6E7028327C4FD032744FD1A
:1033C00023A8E7048327C4FD23AA07048327C4FD99
:1033D0009387470013850700EFF04FDC8327C4FD78
:1033E0009387870113850700EFF04FDB8327C4FD28
:1033F0000327C4FD23A8E70013075000832744FDDB
:103400003307F7408327C4FD23ACE7008327C4FDBF
:103410000327C4FD23A2E7028327C4FD23A20704D8
:103420008327C4FD23AC07048327C4FD23AE070410
:10343000130000008320C10303248103130101044E
:1034400067800000130101FE232E1100232C810050
:1034500013040102232604FE6F0080030327C4FE29
:103460009307070093972700B387E70093972700F8
:103470003797018013070711B387E700138507000B
:10348000EFF08FCB8327C4FE938717002326F4FE2B
:103490000327C4FE93074000E3F2E7FCB7970180DF
:1034A00013854717EFF04FC9B79701801385871829
:1034B000EFF08FC8B79701801385C719EFF0CFC71A
:1034C000B79701801385071BEFF00FC7B7970180EF
:1034D0001385471CEFF04FC6379701801307471736
:1034E00023AAE18A379701801307871823ACE18A62
:1034F000130000008320C101032481011301010294
:1035000067800000130101FE232E1100232C81008F
:10351000130401026F004007EFF01F96B797018078
:1035200083A7071B93B7170093F7F70F2326F4FE23
:10353000EFF01F978327C4FE63980704EFE0DFF0E6
:10354000B79701809387071B83A7C70083A7C7008E
:103550002324F4FE832784FE938747001385070006
:10356000EFF0CFCE83A7018C1387F7FF23A0E18C68
:1035700083A7C18B1387F7FF23AEE18AEFE01FF02B
:10358000032584FEEF00000E83A7C18BE39607F8A6
:10359000130000008320C1010324810113010102F3
:1035A00067800000130101FD2326110223248102FC
:1035B0001304010393070500232CB4FC231FF4FC20
:1035C000832784FD639E07008357E4FD93972700BC
:1035D00013850700EFE0DFB0930705006F00800060
:1035E000832784FD2324F4FE832784FE638A070255
:1035F00013050006EFE0DFAE2326A4FE8327C4FEFA
:10360000638A07008327C4FE032784FE23A8E702FA
:103610006F004001032584FEEFE05FCA6F00800069
:10362000232604FE8327C4FE638207028327C4FE89
:1036300003A707038357E4FD93972700138607002A
:103640009305500A13050700EFF0CFC98327C4FE86
:10365000138507008320C1020324810213010103A3
:1036600067800000130101FE232E1100232C81002E
:10367000130401022326A4FE8327C4FE83A70703A5
:1036800013850700EFE09FC30325C4FEEFE01FC3CF
:10369000130000008320C1010324810113010102F2
:1036A00067800000130101FE232E81001304010234
:1036B00083A7418B83A70700639607009307100039
:1036C0006F00800093070000638807001307F0FF76
:1036D00023A0E18E6F00000283A7418B83A7C70060
:1036E00083A7C7002326F4FE8327C4FE03A7470051
:1036F00023A0E18E130000000324C1011301010285
:1037000067800000130101FE232E1100232C81008D
:10371000130401022326A4FE8327C4FE93E70710A7
:1037200013062000938507001385818EEFE0CFD824
:103730008327C4FE93E70710130620009385070034
:103740001385018FEFE04FD7930500001385818E1D
:10375000EFE01F91930510001385818EEFE05F90DD
:1037600013060000930520001385018FEFE0CFEBD7
:1037700013060000930530001385018FEFE0CFEAB8
:1037800013060000930540001385018FEFE0CFE999
:1037900013060000930550001385018FEFE0CFE87A
:1037A000930610001306A0018325C4FE1385818FA4
:1037B000EFD00FBD130000008320C101032481015D
:1037C0001301010267800000130101FE232E110086
:1037D000232C8100130401022326A4FE93870500F5
:1037E000A305F4FE0347B4FE93071000631AF70025
:1037F0008325C4FE1385818FEFD04FD56F00400124
:10380000130610008325C4FE1385818FEFD0CFC827
:10381000130000008320C101032481011301010270
:1038200067800000130101FE232E810013040102B2
:10383000F32740F12324F4FE832784FE2322F4FEA1
:10384000232604FE6F00C00337070040832744FE91
:10385000939657008327C4FEB386F600B71700007F
:1038600093870780B387F60093972700B307F70085
:1038700023A007008327C4FE938717002326F4FEA6
:103880008327C4FEE38207FC232604FE6F00400268
:10389000370700408327C4FE93972700B307F7003C
:1038A00023A007008327C4FE938717002326F4FE76
:1038B0000327C4FE9307E001E3FCE7FC3707004061
:1038C000832744FE938707209397C700B307F70029
:1038D00023A00700B717000093870780F3A747309E
:1038E0002320F4FE130000000324C1011301010290
:1038F00067800000130101FF2326810013040101EA
:10390000130000000324C1001301010167800000BF
:10391000130101FF2326810013040101130000009D
:103920000324C1001301010167800000130101FF9E
:103930002326810013040101130000000324C100A9
:103940001301010167800000130101FF232611000C
:103950002324810013040101EFF0DFEC3705007030
:10396000EFF05FDA13062000B72500701385019091
:10397000EFE08FB49306300013060003B7350070F4
:10398000B79701801385871DEFD04FC7130700003D
:10399000930610001306000093054000B7970180BE
:1039A0001385871DEFD00FDC93051000B74700602B
:1039B000138507EDEFF05FE19308000013080000A6
:1039C0009307000013071000930600001306803EC3
:1039D000B7450060938505EE37450060130505A3E4
:1039E000EFF0CF9EEFF04FC0930700001385070064
:1039F0008320C100032481001301010167800000BE
:103A0000130101FF232681001304010173700430A8
:103A10006F000000130101FF232681001304010140
:103A2000130000000324C10013010101678000009E
:103A3000130101FD23261102232481021304010333
:103A4000232EA4FCB79701801385871DEFD0DF825A
:103A50009307F4FE13070000930610001386070077
:103A600093050000B79701801385871DEFD08FE580
:103A70006F000000000000000000000000000000D7
:103A800068656C6C6F000000E0120060841B0060D1
:103A9000841B0060841B0060841B0060841B00602A
:103AA000841B0060841B0060E0120060841B0060C7
:103AB000841B0060841B0060841B0060841B00600A
:103AC000841B0060841B0060FC130060841B00608A
:103AD000841B0060841B0060841B0060841B0060EA
:103AE000841B0060841B0060C0130060841B0060A6
:103AF000841B0060841B0060841B0060841B0060CA
:103B0000841B0060841B0060FC130060841B006049
:103B1000841B0060841B0060841B0060841B0060A9
:103B2000841B0060841B0060F4140060841B006030
:103B3000841B0060841B0060841B0060841B006089
:103B4000841B0060841B0060A0130060841B006065
:103B5000841B0060841B0060841B0060841B006069
:103B6000841B0060841B006030150060841B0060B3
:103B7000841B0060841B0060841B0060841B006049
:103B8000841B0060841B0060DC150060841B0060E7
:103B9000841B0060841B0060841B0060841B006029
:103BA000841B0060841B006018160060841B00608A
:103BB000841B0060841B0060841B0060841B006009
:103BC000841B0060841B00608C160060841B0060F6
:103BD000841B0060841B0060841B0060841B0060E9
:103BE000841B0060841B00608C170060841B0060D5
:103BF000841B0060841B0060841B0060841B0060C9
:103C0000841B0060841B006080170060841B0060C0
:103C1000841B0060841B0060841B0060841B0060A8
:103C2000841B0060841B00608C170060841B006094
:103C3000841B0060841B0060841B0060841B006088
:103C4000841B0060841B006080170060841B006080
:103C5000841B0060841B0060841B0060841B006068
:103C6000841B0060841B006000180060841B0060DF
:103C7000841B0060841B0060841B0060841B006048
:103C8000841B0060841B006028170060841B006098
:103C9000841B0060841B0060841B0060841B006028
:103CA000841B0060841B006000180060841B00609F
:103CB000841B0060841B0060841B0060841B006008
:103CC000841B0060841B006028170060841B006058
:103CD000841B0060841B0060841B0060841B0060E8
:103CE000841B0060841B0060B4180060841B0060AB
:103CF000841B0060841B0060841B0060841B0060C8
:103D0000841B0060841B0060081A0060841B006034
:103D1000841B0060841B0060841B0060841B0060A7
:103D2000841B0060841B0060081A0060841B006014
:103D3000841B0060841B0060841B0060841B006087
:103D4000841B0060841B0060081A0060841B0060F4
:103D5000841B0060841B0060841B0060841B006067
:103D6000841B0060841B0060241B0060841B0060B7
:103D7000841B0060841B0060841B0060841B006047
:103D8000841B0060841B0060241B0060841B006097
:103D9000841B0060841B0060841B0060841B006027
:103DA000841B0060841B0060841B0060841B006017
:103DB000841B0060841B0060841B0060841B006007
:103DC000841B0060841B0060D0190060841B0060AD
:103DD000841B0060841B0060841B0060841B0060E7
:103DE000841B0060841B0060EC1B006049444C4550
:103DF000000000000A0D28432920436F7079726982
:103E000067687420323031392046757475726520C8
:103E1000456C656374726F6E696373202D20437205
:103E200065617469766520426F6172640A0D0000F5
:103E30000A0D4672656552544F532053696D706C7C
:103E4000652044656D6F0A0D2020546869732064F5
:103E5000656D6F2063726561746573203320626CD9
:103E6000696E6B696E67204C4544207461736B7397
:103E700020616E6420616374697661746520746882
:103E800065204672656552544F530A0D20207363B6
:103E9000686564756C65722E204C4544312052650E
:103EA000642C204C45443220477265656E20616E5B
:103EB00064205265642073686F756C64207374614C
:103EC000727420626C696E6B696E672E0A0D000059
:103ED0000D48656C6C6F20576F726C64210A0D0081
:103EE0004F56323634300000000000000000000061
:103EF000FC8F0100AAAAAAAAF8BF0044004000440F
:103F0000A4060060C4060060E406006004070060C8
:103F100024070060440700606407006084070060B5
:103F2000A4070060C4070060E407006004080060A4
:103F30002408006044080060640800608408006091
:103F4000A4080060C4080060E40800600409006080
:103F5000240900604409006064090060840900606D
:103F6000A4090060C4090060E4090060040A00605C
:103F7000240A00602C39006010390060F4380060B9
:040000056000000097
:00000001FF
