:0200000460009A
:100000006F00C0006F0000006F00C0029702000088
:10001000938282027390523073500030735040309C
:10002000970100209381017E17B101201301811BEC
:100030006F00001E130101F823201100232221006C
:10004000232431002326410023285100232A610064
:10005000232C7100232E8100232091022322A10250
:100060002324B1022326C1022328D102232AE1023C
:10007000232CF102232E0103232011052322210525
:10008000232431052326410523285105232A610510
:10009000232C7105232E8105232091072322A107FC
:1000A0002324B1072326C1072328D107232AE107E8
:1000B000232CF107F3221034232E5106732520340C
:1000C000F325103413060100EF00004B73101534B4
:1000D000B72200009382028073A0023083200100C7
:1000E00003214100832181000322C10083220101F9
:1000F00003234101832381010324C10183240102DD
:1001000003254102832581020326C10283260103C0
:1001100003274103832781030328C10383280104A4
:100120000329410483298104032AC104832A010588
:10013000032B4105832B8105032CC105832C01066C
:10014000032D4106832D8106032EC106832E010750
:10015000032F4107832F810713010108730020300B
:10016000130101FE232E8100130401022326A4FEA5
:100170002324B4FE2322C4FE6F00C0028327C4FEE2
:1001800003A70700832784FE23A0E7008327C4FE7C
:10019000938747002326F4FE832784FE9387470036
:1001A0002324F4FE032784FE832744FEE3F8E7FCC0
:1001B000130000000324C101130101026780000045
:1001C000130101FD2326810213040103232EA4FC45
:1001D000232CB4FC8327C4FD2326F4FE6F0080018A
:1001E0008327C4FE23A007008327C4FE938747000C
:1001F0002326F4FE0327C4FE832784FDE3F2E7FEF3
:10020000130000000324C1021301010367800000F2
:10021000130101FE232E1100232C8100130401027F
:10022000B7370060938707EC2326F4FE8327C4FECC
:100230002320F4FE232204FE232404FE13860182DD
:10024000B707008093850700B7370060138507FD67
:10025000EFF01FF11386018A93850182B7370060A2
:10026000138507FFEFF0DFEF938501911385018A76
:10027000EFF01FF5B79701809385071E1385019155
:10028000EFF01FF4930704FE938507001305100099
:10029000EF209028130000008320C1010324810176
:1002A0001301010267800000130101FF2326810072
:1002B00013040101130000000324C1001301010114
:1002C00067800000130101FD23268102130401034E
:1002D000232EA4FCF32740F12326F4FE8327C4FE3B
:1002E0002324F4FE370700408327C4FD93D757002B
:1002F000832684FE93965600B386F600B717000057
:1003000093870780B387F60093972700B307F7001A
:1003100083A707002322F4FE8327C4FD93F7F70188
:1003200013071000B317F70093C7F7FF032744FE26
:10033000B377F7002322F4FE370700408327C4FD7C
:1003400093D75700832684FE93965600B386F60013
:10035000B717000093870780B387F60093972700AD
:10036000B307F700032744FE23A0E70013000000B3
:100370000324C1021301010367800000130101FE81
:10038000232E810013040102F32740F12326F4FEFB
:100390008327C4FE2324F4FE37070040832784FE0E
:1003A000938707209397C700B307F70083A74700F9
:1003B000138507000324C1011301010267800000B7
:1003C000130101FD2326810213040103232EA4FC43
:1003D000F32740F12326F4FE8327C4FE2324F4FEF2
:1003E00037070040832784FE938707209397C70031
:1003F000B307F7000327C4FD23A2E70013000000A2
:100400000324C1021301010367800000130101FEF0
:10041000232E810013040102F36704302326F4FE27
:10042000130000000324C1011301010267800000D2
:10043000130101FE232E1100232C8100130401025D
:1004400093070008F3B747302326F4FEEF10003877
:1004500037070044B7C70000B307F70003A8C7FF7A
:1004600083A787FF83A5018A03A6418A3705004435
:10047000732740F12324E4FE832884FEB386B7006B
:10048000138306003333F3003307C800B307E300D8
:10049000138707009387060013080700371700002B
:1004A000130707803387E800131737003307E50089
:1004B0002320F7002322070193070008F3A7473002
:1004C0002322F4FE130000008320C10103248101D4
:1004D0001301010267800000130101FE232E1100A9
:1004E000232C810013040102EFF05FE92326A4FE10
:1004F000A30504FEB70700800327C4FE13172700D7
:1005000093870702B307F70083A70700E780070078
:1005100093070500A305F4FE0325C4FEEFF05FEA90
:100520000347B4FE930710006316F7000325C4FECB
:10053000EFF05FD9130000008320C1010324810183
:100540001301010267800000130101FF232611003F
:100550002324810013040101EF104038B707004441
:1005600023A00700130000008320C10003248100A2
:100570001301010167800000130101FB2326110410
:100580002324810413040105232EA4FA232CB4FA96
:100590008327C4FB63D207020327C4FBB70700808D
:1005A00093C7F7FF3377F7009307B0006316F700A0
:1005B000EFF09FF26F00800A8327C4FB63D207022B
:1005C0000327C4FBB707008093C7F7FF3377F70013
:1005D000930770006316F700EFF09FE56F000008C7
:1005E0008327C4FB63D207020327C4FBB70700803D
:1005F00093C7F7FF3377F700930730006316F700D0
:10060000EFF09FF46F008005F32740342326F4FEBB
:100610008327C4FE2324F4FEF32730342322F4FE80
:10062000832744FE2320F4FEF3275030232EF4FCCE
:100630008327C4FD232CF4FCF3270034232AF4FC85
:10064000832744FD2328F4FCF32700302326F4FC01
:100650008327C4FC2324F4FC73001000832784FB4D
:10066000138507008320C1040324810413010105BD
:1006700067800000130101FF23268100130401019C
:1006800093070000138507000324C1001301010133
:1006900067800000130101FF23268100130401017C
:1006A00093070000138507000324C1001301010113
:1006B00067800000130101FF23268100130401015C
:1006C00093070000138507000324C10013010101F3
:1006D00067800000130101FF23268100130401013C
:1006E00093070000138507000324C10013010101D3
:1006F00067800000130101FF23268100130401011C
:1007000093070000138507000324C10013010101B2
:1007100067800000130101FF2326810013040101FB
:1007200093070000138507000324C1001301010192
:1007300067800000130101FF2326810013040101DB
:1007400093070000138507000324C1001301010172
:1007500067800000130101FF2326810013040101BB
:1007600093070000138507000324C1001301010152
:1007700067800000130101FF23268100130401019B
:1007800093070000138507000324C1001301010132
:1007900067800000130101FF23268100130401017B
:1007A00093070000138507000324C1001301010112
:1007B00067800000130101FF23268100130401015B
:1007C00093070000138507000324C10013010101F2
:1007D00067800000130101FF23268100130401013B
:1007E00093070000138507000324C10013010101D2
:1007F00067800000130101FF23268100130401011B
:1008000093070000138507000324C10013010101B1
:1008100067800000130101FF2326810013040101FA
:1008200093070000138507000324C1001301010191
:1008300067800000130101FF2326810013040101DA
:1008400093070000138507000324C1001301010171
:1008500067800000130101FF2326810013040101BA
:1008600093070000138507000324C1001301010151
:1008700067800000130101FF23268100130401019A
:1008800093070000138507000324C1001301010131
:1008900067800000130101FF23268100130401017A
:1008A00093070000138507000324C1001301010111
:1008B00067800000130101FF23268100130401015A
:1008C00093070000138507000324C10013010101F1
:1008D00067800000130101FF23268100130401013A
:1008E00093070000138507000324C10013010101D1
:1008F00067800000130101FF23268100130401011A
:1009000093070000138507000324C10013010101B0
:1009100067800000130101FF2326810013040101F9
:1009200093070000138507000324C1001301010190
:1009300067800000130101FF2326810013040101D9
:1009400093070000138507000324C1001301010170
:1009500067800000130101FF2326810013040101B9
:1009600093070000138507000324C1001301010150
:1009700067800000130101FF232681001304010199
:1009800093070000138507000324C1001301010130
:1009900067800000130101FF232681001304010179
:1009A00093070000138507000324C1001301010110
:1009B00067800000130101FF232681001304010159
:1009C00093070000138507000324C10013010101F0
:1009D00067800000130101FF232681001304010139
:1009E00093070000138507000324C10013010101D0
:1009F00067800000130101FF232681001304010119
:100A000093070000138507000324C10013010101AF
:100A1000678000002320B5006780000003250500E3
:100A200067800000138E0600331EBE00337ECE00AA
:100A3000032305009303060093C3F3FF337373008E
:100A40003363C30123206500678000000325050090
:100A50003375C5003355B500678000002310B5001D
:100A6000678000000315050067800000138E0600F4
:100A7000331EBE00337ECE00031305009303060031
:100A800093C3F3FF337373003363C3012310650013
:100A900067800000031505003375C5003355B500A8
:100AA000678000002300B500678000000305050093
:100AB00067800000138E0600331EBE00337ECE001A
:100AC000030305009303060093C3F3FF337373001E
:100AD0003363C30123006500678000000305050040
:100AE0003375C5003355B50067800000130101FD63
:100AF000232611022324810213040103232EA4FCC4
:100B0000232CB4FC9307060013870600231BF4FC78
:100B100093070700A30AF4FC8327C4FD638A070C2C
:100B2000034754FD9307700063E4E70C035764FD2B
:100B3000B7270000637EF70A832784FD13878700A9
:100B4000835764FD93F7F70F93850700130507009C
:100B5000EFF05FF5832784FD9386C700034754FDBC
:100B6000835764FD93D7574093F7877FB367F700A8
:100B70009385070013850600EFF0DFF28327C4FD9D
:100B8000032784FD23A0E7008327C4FD83A7070074
:100B90009387070113850700EFF05FF193070500C6
:100BA00093F72700A307F4FE6F0080038327C4FD9B
:100BB00083A707009387470013850700EFF01FEF17
:100BC0008327C4FD83A707009387070113850700C8
:100BD000EFF0DFED9307050093F72700A307F4FE7E
:100BE0008347F4FEE39407FC8327C4FD23820700B8
:100BF000130000008320C1020324810213010103BA
:100C000067800000130101FD2326110223248102C5
:100C100013040103232EA4FC232CB4FC232AC4FCBC
:100C20008327C4FD63800708832784FD638C070640
:100C3000832744FD63880706232604FE6F00C00552
:100C40008327C4FD83A70700938707011385070047
:100C5000EFF0DFE59307050093F71700A305F4FE17
:100C60008347B4FEE38E07FC8327C4FD83A60700F9
:100C7000032784FD8327C4FEB307F70083C707005B
:100C80009385070013850600EFF0DFE18327C4FE9C
:100C9000938717002326F4FE0327C4FE832744FD11
:100CA000E360F7FA130000008320C10203248102ED
:100CB0001301010367800000130101FD23261102C7
:100CC0002324810213040103232EA4FC232CB4FC4F
:100CD0008327C4FD63800708832784FD638C070690
:100CE000232604FE6F00C0058327C4FD83A70700E9
:100CF0009387070113850700EFF05FDB930705007B
:100D000093F71700A305F4FE8347B4FEE38E07FCB8
:100D10008327C4FD83A60700032784FD8327C4FE21
:100D2000B307F70083C70700938507001385060004
:100D3000EFF05FD78327C4FE938717002326F4FEC6
:100D4000032784FD8327C4FEB307F70083C707008A
:100D5000E39C07F8130000008320C10203248102F2
:100D60001301010367800000130101FD2326110216
:100D70002324810213040103232EA4FC232CB4FC9E
:100D8000232AC4FCA30704FE832784FD2324F4FE46
:100D90008327C4FD032784FD23A0E7008327C4FD28
:100DA000032744FD23A2E700A30704FE832784FD55
:100DB0002324F4FE6F00800293050000032584FEC7
:100DC000EFF05FCE832784FE938747002324F4FE51
:100DD0008347F4FE93871700A307F4FE0347F4FE4E
:100DE0009307F001E3FAE7FC8327C4FD83A74700DC
:100DF00013071000638AE7021307100063E4E70695
:100E0000130720006384E7006F00000C8327C4FDF4
:100E100083A70700938707089305F0FF1385070052
:100E2000EFF05FBF6F00400A8327C4FD83A7070070
:100E300013870708B70701009385F7FF130507001D
:100E4000EFF0DFC18327C4FD83A70700138747089E
:100E5000B70701009385F7FF13050700EFF01FC0E8
:100E60006F0080068327C4FD83A7070093870708C8
:100E70009305F00F13850700EFF0DFC28327C4FD51
:100E800083A70700938747089305F00F1385070092
:100E9000EFF05FC18327C4FD83A70700938787080E
:100EA0009305F00F13850700EFF0DFBF8327C4FD24
:100EB00083A707009387C7089305F00F13850700E2
:100EC000EFF05FBE13000000130000008320C1029A
:100ED000032481021301010367800000130101FD57
:100EE000232611022324810213040103232EA4FCD0
:100EF000232CB4FC93070600A30BF4FC8327C4FD4A
:100F000083A7470013071000638AE7081307100040
:100F100063E0E714130720006384E7006F00801E7E
:100F20008327C4FD83A707009387070A138507005B
:100F3000EFF0DFAE2326A4FE834774FD639407021F
:100F400013071000832784FDB317F70093C7F7FF3B
:100F5000138707008327C4FEB3F7E7002326F4FEB8
:100F60006F00000213071000832784FDB317F700FA
:100F7000138707008327C4FEB3E7E7002326F4FEA8
:100F80008327C4FD83A707009387070A8325C4FE30
:100F900013850700EFF01FA86F00C0168327C4FD5C
:100FA00003A70700832784FD93D747009397270063
:100FB000B307F7009387070A2322F4FE032544FEB4
:100FC000EFF05FAA930705002315F4FE834774FD35
:100FD00063900704832784FD93F7F700130710003D
:100FE000B317F7009397070193D7074193C7F7FF0C
:100FF00013970701135707418317A4FEB377F70030
:101000009397070193D707412315F4FE6F00000360
:10101000832784FD93F7F70013071000B317F70039
:1010200013970701135707418317A4FEB367F7000F
:101030009397070193D707412315F4FE8357A4FE26
:1010400093850700032544FEEFF05FA16F00800B3E
:101050008327C4FD03A70700832784FD93D73700A8
:1010600093972700B307F7009387070A2320F4FE1E
:10107000032504FEEFF09FA393070500A304F4FEED
:10108000834774FD63900704832784FD93F77700FB
:1010900013071000B317F7009397870193D7874181
:1010A00093C7F7FF1397870113578741830794FE70
:1010B000B377F7009397870193D78741A304F4FE92
:1010C0006F000003832784FD93F777001307100058
:1010D000B317F7001397870113578741830794FECF
:1010E000B367F7009397870193D78741A304F4FE72
:1010F000834794FE93850700032504FEEFF09F9A33
:1011000013000000130000008320C10203248102A9
:101110001301010367800000130101FD2326110262
:101120002324810213040103232EA4FC232CB4FCEA
:101130008327C4FD83A707002326F4FE032784FD2D
:101140009307F00163E0E704832784FD939727006A
:101150000327C4FEB307F7002326F4FE0325C4FECD
:10116000EFF0DF94930705002324F4FE832784FE29
:1011700093E787002324F4FE832584FE0325C4FE21
:10118000EFF05F92130000008320C102032481026C
:101190001301010367800000130101FC232E1102DB
:1011A000232C8102130401042326A4FC232204FE21
:1011B000EF00906D83A7818B63980700EF004028B4
:1011C0001307100023ACE18A8327C4FC638A07025B
:1011D00093078000138707008327C4FCB387E700C9
:1011E0002326F4FC8327C4FC93F73700638A0700A7
:1011F0008327C4FC93F7C7FF938747002326F4FC9B
:101200008327C4FC638407140327C4FCB797010039
:101210009387B7FF63ECE7129387818A2324F4FE58
:1012200083A7818A2326F4FE6F0080018327C4FEF2
:101230002324F4FE8327C4FE83A707002326F4FE9D
:101240008327C4FE83A747000327C4FC63F8E70095
:101250008327C4FE83A70700E39A07FC0327C4FE85
:101260009387018B6304F70E832784FE83A707000F
:1012700013078000B387E7002322F4FE8327C4FE10
:1012800003A70700832784FE23A0E7008327C4FE6B
:1012900003A747008327C4FCB307F7401307800068
:1012A000131717006376F7080327C4FE8327C4FCCF
:1012B000B307F700232EF4FC8327C4FE03A74700DF
:1012C0008327C4FC3307F7408327C4FD23A2E7002C
:1012D0008327C4FE0327C4FC23A2E7008327C4FDA1
:1012E00083A74700232CF4FC9387818A2320F4FEF4
:1012F0006F000001832704FE83A707002320F4FE6C
:10130000832704FE83A7070083A74700032784FDE4
:10131000E3E2E7FE832704FE03A707008327C4FD5B
:1013200023A0E700832704FE0327C4FD23A0E700D2
:10133000B707008003A707008327C4FE83A74700E1
:101340003307F740B707008023A0E700EF005056AF
:10135000832744FE63940700EF10102A832744FE7E
:10136000138507008320C1030324810313010104B3
:1013700067800000130101FD23261102232481024E
:1013800013040103232EA4FC8327C4FD2324F4FEAD
:101390008327C4FD638C070893078000B307F040E0
:1013A000032784FEB307F7002324F4FE832784FE7B
:1013B0002322F4FEEF00504D832744FE83A747000D
:1013C0002320F4FE9387818A2326F4FE6F00000118
:1013D0008327C4FE83A707002326F4FE8327C4FEC9
:1013E00083A7070083A74700032704FEE3E2E7FE85
:1013F0008327C4FE03A70700832744FE23A0E7003A
:101400008327C4FE032744FE23A0E700832744FE6E
:1014100003A74700B707008083A707003307F7003B
:10142000B707008023A0E700EF00904813000000FA
:101430008320C1020324810213010103678000009D
:10144000130101FE232E810013040102B70700805F
:101450009387471193F7C7FF2326F4FE0327C4FEA3
:1014600023A4E18A9387818A23A207009387018BB3
:10147000379701001307C7FF23A2E70023A8018ABB
:101480008327C4FE2324F4FE832784FE37970100BC
:101490001307C7FF23A2E700832784FE1387018B6E
:1014A00023A0E700130000000324C101130101027F
:1014B00067800000130101FE232E81001304010246
:1014C000F32740F12326F4FE8327C4FE2324F4FEF1
:1014D000F36744302322F4FE37070044832784FE59
:1014E00093972700B307F7001307100023A0E70026
:1014F000130000000324C1011301010267800000F2
:10150000130101FF232681001304010173700430CD
:10151000B707008083A7470013871700B70700802D
:1015200023A2E700130000000324C10013010101FE
:1015300067800000130101FF2326810013040101CD
:10154000B707008083A747001387F7FFB70700801E
:1015500023A2E700B707008083A747006394070032
:1015600073600430130000000324C1001301010163
:1015700067800000130101FE232E81001304010285
:101580003706008003268600032606002324C4FEB7
:10159000232604FE37060080032686000326460025
:1015A0009306060013070000139806009307000037
:1015B000032784FE3367F7002324E4FE0327C4FED9
:1015C000B36707012326F4FE832684FE0327C4FEA7
:1015D000B7C500009385053513060000B387B60034
:1015E000138507003335D5003308C70033070501DD
:1015F000130807002324F4FE232604FFB707008006
:1016000083A7C700032784FE23A0E7008327C4FE27
:1016100013D3070093030000B707008083A7C70018
:101620001307030023A2E7009307000873A04730C5
:10163000130000000324C1011301010267800000B0
:10164000130101FE232E81001304010237060080DE
:1016500003268600032606002324C4FE232604FE58
:101660003706008003268600032646009306060000
:10167000130700001398060093070000032784FE59
:101680003367F7002324E4FE0327C4FEB367070192
:101690002326F4FE832684FE0327C4FEB7C500007C
:1016A0009385053513060000B387B6001385070040
:1016B0003335D5003308C700330705011308070089
:1016C0002324F4FE232604FFB707008083A7C70066
:1016D000032784FE23A0E7008327C4FE13D307005B
:1016E00093030000B707008083A7C7001307030018
:1016F00023A2E7009307000873A0473013000000FF
:101700000324C1011301010267800000130101FFDE
:101710002326810013040101B707008003A74700B7
:101720009307F0FF6306F700737004306F0000004A
:10173000737004306F000000130101FE232E81003E
:10174000130401022326A4FE2324B4FE2322C4FE94
:101750008327C4FE9387C7FF2326F4FE032784FE56
:101760008327C4FE23A0E7008327C4FE938787FA5C
:101770002326F4FE032744FE8327C4FE23A0E700AC
:101780008327C4FE938787FE2326F4FE93870100F8
:10179000138707008327C4FE23A0E7008327C4FE26
:1017A000938747FF2326F4FEB71700601387C7709F
:1017B0008327C4FE23A0E7008327C4FE1385070008
:1017C0000324C1011301010267800000130101FF1E
:1017D00023261100232481001304010183A2018C1C
:1017E00023A0C200EFF01FD9EF009022930705005D
:1017F00063840700EF00904003A1018C03210100E6
:101800008322C10773901234832001000322C10098
:101810008322010103234101832381010324C101A8
:101820008324010203254102832581020326C1028C
:101830008326010303274103832781030328C10370
:10184000832801040329410483298104032AC10454
:10185000832A0105032B4105832B8105032CC10538
:10186000832C0106032D4106832D8106032EC1061C
:10187000832E0107032F4107832F810713010108DE
:1018800073002030130000008320C1000324810076
:101890001301010167800000130101FF23261100DD
:1018A0002324810013040101EFF09FD9B7070080C2
:1018B00023A207001307100023AEE18AEFE01FB553
:1018C000EFF05FBF93070000138507008320C1007E
:1018D000032481001301010167800000130101FF4F
:1018E00023261100232481001304010103A7C18BC7
:1018F000930710006318F7001307200023AEE18A56
:101900006F00000183A2018C23A0C200EF00102F02
:1019100003A1018C032101008322C10773901234BB
:10192000832001000322C10083220101032341011E
:10193000832381010324C101832401020325410281
:10194000832581020326C102832601030327410365
:10195000832781030328C103832801040329410449
:1019600083298104032AC104832A0105032B41052D
:10197000832B8105032CC105832C0106032D410611
:10198000832D8106032EC106832E0107032F4107F5
:10199000832F8107130101081301C1FF2320510088
:1019A000B702004423A0020083220100130141007A
:1019B00073002030130000008320C1000324810045
:1019C0001301010167800000130101FF23261100AC
:1019D0002324810013040101EFF0DFAD13000000A8
:1019E0008320C100032481001301010167800000EE
:1019F000130101FE232E8100130401022326A4FEFD
:101A00008327C4FE138787008327C4FE23A2E70031
:101A10008327C4FE1307F0FF23A4E7008327C4FE37
:101A2000138787008327C4FE23A6E7008327C4FE0D
:101A3000138787008327C4FE23A8E7008327C4FEFB
:101A400023A00700130000000324C10113010102B9
:101A500067800000130101FE232E810013040102A0
:101A60002326A4FE8327C4FE23A80700130000003A
:101A70000324C1011301010267800000130101FD6D
:101A80002326810213040103232EA4FC232CB4FC7F
:101A90008327C4FD83A747002326F4FE832784FD04
:101AA0000327C4FE23A2E7008327C4FE03A7870001
:101AB000832784FD23A4E7008327C4FE83A7870030
:101AC000032784FD23A2E7008327C4FE032784FDA8
:101AD00023A4E700832784FD0327C4FD23A8E70090
:101AE0008327C4FD83A70700138717008327C4FD3E
:101AF00023A0E700130000000324C1021301010327
:101B000067800000130101FD2326810213040103F5
:101B1000232EA4FC232CB4FC832784FD83A7070079
:101B20002324F4FE032784FE9307F0FF631AF700D3
:101B30008327C4FD83A707012326F4FE6F0040031B
:101B40008327C4FD938787002326F4FE6F000001DE
:101B50008327C4FE83A747002326F4FE8327C4FE01
:101B600083A7470083A70700032784FEE372F7FEDD
:101B70008327C4FE03A74700832784FD23A2E70031
:101B8000832784FD83A74700032784FD23A4E70060
:101B9000832784FD0327C4FE23A4E7008327C4FE14
:101BA000032784FD23A2E700832784FD0327C4FDC8
:101BB00023A8E7008327C4FD83A707001387170026
:101BC0008327C4FD23A0E700130000000324C10203
:101BD0001301010367800000130101FD2326810228
:101BE00013040103232EA4FC8327C4FD83A707014C
:101BF0002326F4FE8327C4FD83A747000327C4FDE3
:101C00000327870023A4E7008327C4FD83A7870059
:101C10000327C4FD0327470023A2E7008327C4FE50
:101C200083A747000327C4FD631AF7008327C4FD79
:101C300003A787008327C4FE23A2E7008327C4FDF0
:101C400023A807008327C4FE83A707001387F7FF95
:101C50008327C4FE23A0E7008327C4FE83A70700D1
:101C6000138507000324C1021301010367800000EC
:101C7000130101FD2326810213040103232EA4FC7A
:101C8000232CB4FC232AC4FC0327C4FD832744FD72
:101C9000B367F70093F7370063980706832784FD3F
:101CA00093F7F70F2322F4FE832744FE93978700D0
:101CB000032744FEB367F7002322F4FE832744FE84
:101CC00093970701032744FEB367F7002322F4FE2E
:101CD0008327C4FD2326F4FE6F0080018327C4FE02
:101CE000138747002326E4FE032744FE23A0E700D2
:101CF0000327C4FD832744FDB307F7000327C4FE71
:101D0000E36EF7FC6F0000048327C4FD2324F4FE78
:101D10006F000002832784FE138717002324E4FE4C
:101D2000032784FD13178701135787412380E7009A
:101D30000327C4FD832744FDB307F700032784FE70
:101D4000E36AF7FC8327C4FD138507000324C1025F
:101D50001301010367800000130101FC232E11020F
:101D6000232C810213040104232EA4FC232CB4FC95
:101D70002328D4FC2326E4FC2324F4FC232204FDA2
:101D8000232014FD93070600231BF4FC8327C4FDC6
:101D900063960700737004306F0000000327C4FCD3
:101DA0009307400063F6E700737004306F00000093
:101DB000835764FD832544FC13850700EF0010283A
:101DC0002324A4FE832784FE63820716832784FED0
:101DD00003A70703835664FDB70700409387F7FF07
:101DE000B387F60093972700B307F7002322F4FE8A
:101DF000832744FE93F7C7FF2322F4FE832744FE84
:101E000093F7370063860700737004306F0000009B
:101E1000835764FD13870700832604FC0326C4FC54
:101E2000832584FD032584FEEF00406F032604FD17
:101E30008325C4FD032544FEEFF01F901307050022
:101E4000832784FE23A0E700832784FC63880700A0
:101E5000832784FC032784FE23A0E700EFF04FEAEA
:101E600083A7018D1387170023A8E18C83A7018C1A
:101E700063900702032784FE23A0E18C03A7018D52
:101E8000930710006316F702EF00C07C6F0040025A
:101E900083A7C18D639E070083A7018C83A7C70218
:101EA0000327C4FC6366F700032784FE23A0E18CAC
:101EB00083A7C18E1387170023A6E18E03A7C18EC7
:101EC000832784FE23A4E704832784FE03A7C70295
:101ED00083A7818D63F8E700832784FE03A7C702E9
:101EE00023ACE18C832784FE03A7C7029307070076
:101EF00093972700B387E7009397270037970180D0
:101F0000130707113387E700832784FE9387470071
:101F10009385070013050700EFF05FB693071000E5
:101F20002326F4FEEFF00FE16F00C0009307F0FFEF
:101F30002326F4FE0327C4FE930710006310F70264
:101F400083A7C18D638C070083A7018C83A7C70279
:101F50000327C4FC63F4E700EFF01FA78327C4FE48
:101F6000138507008320C1030324810313010104A7
:101F700067800000130101FD232611022324810242
:101F800013040103232EA4FC232604FE8327C4FD8F
:101F90006384070483A7418F63860700737004304E
:101FA0006F000000EF00400E83A7418D0327C4FDA2
:101FB000B307F7002324F4FE83A7018C938747001F
:101FC00013850700EFF05FC1032584FEEF00807EDC
:101FD000EF00000E2326A4FE8327C4FE63940700AF
:101FE000EFF09F9E130000008320C10203248102B2
:101FF0001301010367800000130101FE232E11006D
:10200000232C810013040102930800001308000030
:10201000930700001307000093060000130600401A
:10202000B7350060938585EC372500601305854E34
:10203000EFF09FD22326A4FE0327C4FE93071000CF
:102040006312F702737004301307F0FF23A8E18EC8
:102050001307100023AEE18C23AA018CEFF0DF837D
:102060006F0040018327C4FE63960700737004303D
:102070006F000000130000008320C10103248101D0
:102080001301010267800000130101FF2326810074
:102090001304010183A7418F1387170023AAE18E40
:1020A000130000000324C100130101016780000038
:1020B000130101FE232E1100232C810013040102C1
:1020C000232604FE83A7418F6396070073700430B4
:1020D0006F000000EFF0CFC283A7418F1387F7FF97
:1020E00023AAE18E83A7418F6396071083A7018DF2
:1020F000638207106F00800AB79701809387C71922
:1021000083A7C70083A7C7002324F4FE832784FE88
:102110009387870113850700EFF01FAC832784FEA8
:102120009387470013850700EFF01FAB832784FEDA
:1021300003A7C70283A7818D63F8E700832784FE86
:1021400003A7C70223ACE18C832784FE03A7C70241
:102150009307070093972700B387E700939727001B
:1021600037970180130707113387E700832784FE21
:10217000938747009385070013050700EFF01F9032
:10218000832784FE03A7C70283A7018C83A7C70206
:102190006366F7001307100023A2E18EB797018052
:1021A00083A7C719E39A07F483A7018E6388070200
:1021B0006F004002EF00C00593070500638607002B
:1021C0001307100023A2E18E83A7018E1387F7FF68
:1021D00023A0E18E83A7018EE39E07FC03A7418E17
:1021E000930710006318F700930710002326F4FEEE
:1021F000EFF08FFDEFF00FB48327C4FE13850700C7
:102200008320C101032481011301010267800000C2
:10221000130101FD2326110223248102130401036B
:10222000232604FE83A7418F6390071A83A7418D5D
:102230001387170023AAE18C83A7418D2324F4FE82
:10224000832784FE6390070483A7418C83A707003C
:1022500063860700737004306F00000083A7418C11
:102260002322F4FE03A7818C23A2E18C032744FEE2
:1022700023A4E18C83A7818E1387170023A4E18E0A
:10228000EF00C06B83A7018F032784FE6360F71004
:1022900083A7418C83A7070063960700930710006C
:1022A0006F00800093070000638807001307F0FFAA
:1022B00023A8E18E6F00800D83A7418C83A7C70000
:1022C00083A7C7002320F4FE832704FE83A74700CB
:1022D000232EF4FC032784FE8327C4FD6378F700D4
:1022E0000327C4FD23A8E18E6F00400A832704FE64
:1022F0009387470013850700EFF01F8E832704FEA6
:1023000083A78702638A0700832704FE93878701D8
:1023100013850700EFF05F8C832704FE03A7C70235
:1023200083A7818D63F8E700832704FE03A7C70214
:1023300023ACE18C832704FE03A7C70293070700A1
:1023400093972700B387E70093972700379701807B
:10235000130707113387E700832704FE938747009D
:102360009385070013050700EFF04FF1832704FE64
:1023700003A7C70283A7018C83A7C702E36AF7F00C
:10238000930710002326F4FE6FF09FF083A7018CC3
:1023900003A7C702B796018093070700939727000A
:1023A000B387E7009397270013870611B387E700E9
:1023B00003A707009307100063FEE70093071000D0
:1023C0002326F4FE6F00000183A7018E13871700F8
:1023D00023A0E18E83A7418E638607009307100038
:1023E0002326F4FE8327C4FE138507008320C10241
:1023F000032481021301010367800000130101FE21
:10240000232E81001304010283A7418F63880700F4
:102410001307100023A2E18E6F00000C23A2018E8F
:102420006F00000283A7818D6396070073700430EC
:102430006F00000083A7818D1387F7FF23ACE18C29
:1024400003A7818DB7960180930707009397270014
:10245000B387E7009397270013870611B387E70038
:1024600083A70700E38007FC03A7818D930707007C
:1024700093972700B387E70093972700379701804A
:1024800013070711B387E7002326F4FE8327C4FE52
:1024900083A7470003A747008327C4FE23A2E700C2
:1024A0008327C4FE03A747008327C4FE93878700C2
:1024B000631CF7008327C4FE83A7470003A74700D8
:1024C0008327C4FE23A2E7008327C4FE83A7470017
:1024D00003A7C70023A0E18C130000000324C1015F
:1024E0001301010267800000130101FE232E110079
:1024F000232C8100130401022326A4FEEF00802177
:10250000B797018003A707119307100063F4E70052
:10251000EFF08FCBEF00900F6FF05FFE130101FC27
:10252000232E1102232C810213040104232EA4FC68
:10253000232CB4FC232AC4FC2328D4FC93070700D3
:102540002317F4FC232604FE6F004004032784FDB8
:102550008327C4FEB307F700038707008326C4FD63
:102560008327C4FEB387F600238AE702032784FD8E
:102570008327C4FEB307F700838707006380070241
:102580008327C4FE938717002326F4FE0327C4FE87
:102590009307F000E3FCE7FA6F00800013000000EF
:1025A0008327C4FDA3810704032744FD930740004C
:1025B00063F6E70093074000232AF4FC8327C4FD59
:1025C000032744FD23A6E7028327C4FD032744FD18
:1025D00023A8E7048327C4FD23AA07048327C4FD97
:1025E0009387470013850700EFF0CFC68327C4FD0C
:1025F0009387870113850700EFF0CFC58327C4FDBC
:102600000327C4FD23A8E70013075000832744FDD8
:102610003307F7408327C4FD23ACE7008327C4FDBD
:102620000327C4FD23A2E7028327C4FD23A20704D6
:102630008327C4FD23AC07048327C4FD23AE07040E
:10264000130000008320C10303248103130101044C
:1026500067800000130101FE232E1100232C81004E
:1026600013040102232604FE6F0080030327C4FE27
:102670009307070093972700B387E70093972700F6
:102680003797018013070711B387E7001385070009
:10269000EFF00FB68327C4FE938717002326F4FEBE
:1026A0000327C4FE93074000E3F2E7FCB7970180DD
:1026B00013854717EFF0CFB3B797018013858718BD
:1026C000EFF00FB3B79701801385C719EFF04FB242
:1026D000B79701801385071BEFF08FB1B797018083
:1026E0001385471CEFF0CFB03797018013074717CA
:1026F00023A2E18C379701801307871823A4E18C6C
:10270000130000008320C101032481011301010291
:1027100067800000130101FE232E1100232C81008D
:10272000130401026F004007EFF01F96B797018076
:1027300083A7071B93B7170093F7F70F2326F4FE21
:10274000EFF01F978327C4FE63980704EFE05FDB79
:10275000B79701809387071B83A7C70083A7C7008C
:102760002324F4FE832784FE938747001385070004
:10277000EFF08FC683A7018D1387F7FF23A8E18CA5
:1027800083A7C18C1387F7FF23A6E18CEFE09FDAC4
:10279000032584FEEF00801683A7C18CE39607F81B
:1027A000130000008320C1010324810113010102F1
:1027B00067800000130101FE232E1100232C8100ED
:1027C000130401022326A4FE83A7018C0327C4FE61
:1027D00023A2E70083A7418D0327C4FE6370F7029D
:1027E00003A7818C83A7018C9387470093850700FB
:1027F00013050700EFF00FB16F00000303A7418C32
:1028000083A7018C93874700938507001305070072
:10281000EFF04FAF83A7018F0327C4FE6376F70065
:102820000327C4FE23A8E18E130000008320C1010A
:10283000032481011301010267800000130101FDDF
:1028400023261102232481021304010393070500A8
:10285000232CB4FC231FF4FC832784FD639E070014
:102860008357E4FD9397270013850700EFE0DF927D
:10287000930705006F008000832784FD2324F4FE66
:10288000832784FE638A070213050006EFE0DF90CA
:102890002326A4FE8327C4FE638A07008327C4FE81
:1028A000032784FE23A8E7026F004001032584FE6E
:1028B000EFE05FAC6F008000232604FE8327C4FE98
:1028C000638207028327C4FE03A707038357E4FD3F
:1028D00093972700138607009305500A13050700F6
:1028E000EFF00FB98327C4FE138507008320C102D0
:1028F000032481021301010367800000130101FE1C
:10290000232E1100232C8100130401022326A4FE90
:102910008327C4FE83A7070313850700EFE09FA565
:102920000325C4FEEFE01FA5130000008320C101B2
:10293000032481011301010267800000130101FEDD
:10294000232E81001304010283A7418C83A7070073
:1029500063960700930710006F0080009307000044
:10296000638807001307F0FF23A8E18E6F000002C1
:1029700083A7418C83A7C70083A7C7002326F4FE43
:102980008327C4FE03A7470023A8E18E130000009D
:102990000324C1011301010267800000130101FE3D
:1029A000232E1100232C8100130401022326A4FEF0
:1029B0008327C4FE93E707101306200093850700C2
:1029C0001385818FEFE04FBA8327C4FE93E707108A
:1029D000130620009385070013850190EFE0CFB820
:1029E000930500001385818FEFE00FF3930510002E
:1029F0001385818FEFE04FF213060000930520004E
:102A000013850190EFE08FCD130600009305300091
:102A100013850190EFE08FCC130600009305400072
:102A200013850190EFE08FCB130600009305500053
:102A300013850190EFE08FCA930610001306A001E2
:102A40008325C4FE13858190EFE04F8A13000000B8
:102A50008320C1010324810113010102678000006A
:102A6000130101FF23261100232481001304010117
:102A7000130610009305200013850190EFE00FC6A8
:102A8000130000008320C100032481001301010111
:102A900067800000130101FF232611002324810019
:102AA0001304010113060000930520001385019013
:102AB000EFE0CFC2130000008320C1000324810097
:102AC0001301010167800000130101FF232611009B
:102AD0002324810013040101130610009305300024
:102AE00013850190EFE08FBF130000008320C10029
:102AF000032481001301010167800000130101FF1D
:102B00002326110023248100130401011306000071
:102B10009305300013850190EFE04FBC13000000D7
:102B20008320C1000324810013010101678000009C
:102B3000130101FF23261100232481001304010146
:102B4000130610009305400013850190EFE00FB9C4
:102B5000130000008320C100032481001301010140
:102B600067800000130101FF232611002324810048
:102B70001304010113060000930540001385019022
:102B8000EFE0CFB5130000008320C10003248100D3
:102B90001301010167800000130101FE232E1100C3
:102BA000232C8100130401022326A4FE9387050031
:102BB000A305F4FE0347B4FE93071000631AF70061
:102BC0008325C4FE13858190EFE00F8F6F004001D5
:102BD000130610008325C4FE13858190EFE08F82D9
:102BE000130000008320C1010324810113010102AD
:102BF00067800000130101FE232E810013040102EF
:102C0000F32740F12324F4FE832784FE2322F4FEDD
:102C1000232604FE6F00C00337070040832744FECD
:102C2000939657008327C4FEB386F600B7170000BB
:102C300093870780B387F60093972700B307F700C1
:102C400023A007008327C4FE938717002326F4FEE2
:102C50008327C4FEE38207FC232604FE6F004002A4
:102C6000370700408327C4FE93972700B307F70078
:102C700023A007008327C4FE938717002326F4FEB2
:102C80000327C4FE9307E001E3FCE7FC370700409D
:102C9000832744FE938707209397C700B307F70065
:102CA00023A00700B717000093870780F3A74730DA
:102CB0002320F4FE130000000324C10113010102CC
:102CC00067800000130101FF232681001304010126
:102CD000130000000324C1001301010167800000FC
:102CE000130101FF232681001304010113000000DA
:102CF0000324C1001301010167800000130101FFDB
:102D00002326810013040101130000000324C100E5
:102D10001301010167800000130101FF2326110048
:102D20002324810013040101EFF0DFEC370500706C
:102D3000EFF0DFC6B707008083A7070193051000F7
:102D400013850700EFF05FE583A74181930510002D
:102D500013850700EFF05FE49308000013080000FC
:102D60009307000013071000930600001306803E2F
:102D7000B73500609385C5FA37350060130585E2E5
:102D8000EFE09FFD93080000130800009307000088
:102D900013073000930600001306803EB73500602D
:102DA000938545FB37350060130585E5EFE0DFFAD5
:102DB0009308000013080000930700001307200089
:102DC000930600001306803EB73500609385C5FB6F
:102DD00037350060130585E8EFE01FF8EFF0CFA16D
:102DE00093070000138507008320C100032481009E
:102DF0001301010167800000130101FF23268100F8
:102E000013040101737004306F000000130101FF0F
:102E10002326810013040101130000000324C100D4
:102E20001301010167800000130101FE232E110030
:102E3000232C8100130401022326A4FEEFF05FCFB0
:102E40001305D000EFF00F93EFF0DFD11305D000A2
:102E5000EFF04F926FF09FFE130101FE232E110041
:102E6000232C8100130401022326A4FEEFF0DFC50A
:102E700013054000EFF00F90EFF05FC8130540001E
:102E8000EFF04F8F6FF09FFE130101FE232E110014
:102E9000232C8100130401022326A4FEEFF05FBC63
:102EA0001305A000EFF00F8DEFF0DFBE1305A000BB
:102EB000EFF04F8C6FF09FFE00000000000000005C
:102EC00068656C6C6F00000049444C4500000000D0
:102ED0000A0D28432920436F70797269676874204E
:102EE000323031392046757475726520456C6563E2
:102EF00074726F6E696373202D204372656174690B
:102F0000766520426F6172640A0D00000A0D4672F8
:102F1000656552544F532053696D706C652044654C
:102F20006D6F0A0D2020546869732064656D6F20F1
:102F300063726561746573203320626C696E6B69BE
:102F40006E67204C4544207461736B7320616E641E
:102F500020616374697661746520746865204672C7
:102F6000656552544F530A0D20207363686564757C
:102F70006C65722E204C454431205265642C204CE7
:102F800045443220477265656E20616E642052654B
:102F9000642073686F756C6420737461727420624E
:102FA0006C696E6B696E672E0A0D00004C454431EA
:102FB000000000004C454432000000004C45443302
:102FC0000000000000000000000000000000000001
:102FD000FC8F0100AAAAAAAAF8BF0044004000443E
:102FE000D02E00600C2F00600000000000000000E8
:102FF0007406006094060060B4060060D4060060A9
:10300000F406006014070060340700605407006095
:103010007407006094070060B4070060D407006084
:10302000F407006014080060340800605408006071
:103030007408006094080060B4080060D408006060
:10304000F40800601409006034090060540900604D
:103050007409006094090060B4090060D40900603C
:10306000F4090060FC2C0060E02C0060C42C0060BF
:040000056000000097
:00000001FF
