:0200000460009A
:100000006F00C0006F0000006F00C0029702000088
:10001000938282027390523073500030735040309C
:10002000970100209381017E17B1012013018122E5
:100030006F00001E130101F823201100232221006C
:10004000232431002326410023285100232A610064
:10005000232C7100232E8100232091022322A10250
:100060002324B1022326C1022328D102232AE1023C
:10007000232CF102232E0103232011052322210525
:10008000232431052326410523285105232A610510
:10009000232C7105232E8105232091072322A107FC
:1000A0002324B1072326C1072328D107232AE107E8
:1000B000232CF107F3221034232E5106732520340C
:1000C000F325103413060100EF00004B73101534B4
:1000D000B72200009382028073A0023083200100C7
:1000E00003214100832181000322C10083220101F9
:1000F00003234101832381010324C10183240102DD
:1001000003254102832581020326C10283260103C0
:1001100003274103832781030328C10383280104A4
:100120000329410483298104032AC104832A010588
:10013000032B4105832B8105032CC105832C01066C
:10014000032D4106832D8106032EC106832E010750
:10015000032F4107832F810713010108730020300B
:10016000130101FE232E8100130401022326A4FEA5
:100170002324B4FE2322C4FE6F00C0028327C4FEE2
:1001800003A70700832784FE23A0E7008327C4FE7C
:10019000938747002326F4FE832784FE9387470036
:1001A0002324F4FE032784FE832744FEE3F8E7FCC0
:1001B000130000000324C101130101026780000045
:1001C000130101FD2326810213040103232EA4FC45
:1001D000232CB4FC8327C4FD2326F4FE6F0080018A
:1001E0008327C4FE23A007008327C4FE938747000C
:1001F0002326F4FE0327C4FE832784FDE3F2E7FEF3
:10020000130000000324C1021301010367800000F2
:10021000130101FE232E1100232C8100130401027F
:10022000B7470060938707FA2326F4FE8327C4FEAE
:100230002320F4FE232204FE232404FE13860182DD
:10024000B707008093850700B74700601385070F45
:10025000EFF01FF11386019093850182B74700608C
:1002600013850711EFF0DFEF938501981385019057
:10027000EFF01FF5B7970180938507251385019847
:10028000EFF01FF4930704FE938507001305100099
:10029000EF20104B130000008320C10103248101D3
:1002A0001301010267800000130101FF2326810072
:1002B00013040101130000000324C1001301010114
:1002C00067800000130101FD23268102130401034E
:1002D000232EA4FCF32740F12326F4FE8327C4FE3B
:1002E0002324F4FE370700408327C4FD93D757002B
:1002F000832684FE93965600B386F600B717000057
:1003000093870780B387F60093972700B307F7001A
:1003100083A707002322F4FE8327C4FD93F7F70188
:1003200013071000B317F70093C7F7FF032744FE26
:10033000B377F7002322F4FE370700408327C4FD7C
:1003400093D75700832684FE93965600B386F60013
:10035000B717000093870780B387F60093972700AD
:10036000B307F700032744FE23A0E70013000000B3
:100370000324C1021301010367800000130101FE81
:10038000232E810013040102F32740F12326F4FEFB
:100390008327C4FE2324F4FE37070040832784FE0E
:1003A000938707209397C700B307F70083A74700F9
:1003B000138507000324C1011301010267800000B7
:1003C000130101FD2326810213040103232EA4FC43
:1003D000F32740F12326F4FE8327C4FE2324F4FEF2
:1003E00037070040832784FE938707209397C70031
:1003F000B307F7000327C4FD23A2E70013000000A2
:100400000324C1021301010367800000130101FEF0
:10041000232E810013040102F36704302326F4FE27
:10042000130000000324C1011301010267800000D2
:10043000130101FE232E1100232C8100130401025D
:1004400093070008F3B747302326F4FEEF10C05A95
:1004500037070044B7C70000B307F70003A8C7FF7A
:1004600083A787FF83A5019003A641903705004429
:10047000732740F12324E4FE832884FEB386B7006B
:10048000138306003333F3003307C800B307E300D8
:10049000138707009387060013080700371700002B
:1004A000130707803387E800131737003307E50089
:1004B0002320F7002322070193070008F3A7473002
:1004C0002322F4FE130000008320C10103248101D4
:1004D0001301010267800000130101FE232E1100A9
:1004E000232C810013040102EFF05FE92326A4FE10
:1004F000A30504FEB70700800327C4FE13172700D7
:1005000093870702B307F70083A70700E780070078
:1005100093070500A305F4FE0325C4FEEFF05FEA90
:100520000347B4FE930710006316F7000325C4FECB
:10053000EFF05FD9130000008320C1010324810183
:100540001301010267800000130101FF232611003F
:100550002324810013040101EF10005BB70700445E
:1005600023A00700130000008320C10003248100A2
:100570001301010167800000130101FB2326110410
:100580002324810413040105232EA4FA232CB4FA96
:100590008327C4FB63D207020327C4FBB70700808D
:1005A00093C7F7FF3377F7009307B0006316F700A0
:1005B000EFF09FF26F00800A8327C4FB63D207022B
:1005C0000327C4FBB707008093C7F7FF3377F70013
:1005D000930770006316F700EFF09FE56F000008C7
:1005E0008327C4FB63D207020327C4FBB70700803D
:1005F00093C7F7FF3377F700930730006316F700D0
:10060000EFF09FF46F008005F32740342326F4FEBB
:100610008327C4FE2324F4FEF32730342322F4FE80
:10062000832744FE2320F4FEF3275030232EF4FCCE
:100630008327C4FD232CF4FCF3270034232AF4FC85
:10064000832744FD2328F4FCF32700302326F4FC01
:100650008327C4FC2324F4FC73001000832784FB4D
:10066000138507008320C1040324810413010105BD
:1006700067800000130101FF23268100130401019C
:1006800093070000138507000324C1001301010133
:1006900067800000130101FF23268100130401017C
:1006A00093070000138507000324C1001301010113
:1006B00067800000130101FF23268100130401015C
:1006C00093070000138507000324C10013010101F3
:1006D00067800000130101FF23268100130401013C
:1006E00093070000138507000324C10013010101D3
:1006F00067800000130101FF23268100130401011C
:1007000093070000138507000324C10013010101B2
:1007100067800000130101FF2326810013040101FB
:1007200093070000138507000324C1001301010192
:1007300067800000130101FF2326810013040101DB
:1007400093070000138507000324C1001301010172
:1007500067800000130101FF2326810013040101BB
:1007600093070000138507000324C1001301010152
:1007700067800000130101FF23268100130401019B
:1007800093070000138507000324C1001301010132
:1007900067800000130101FF23268100130401017B
:1007A00093070000138507000324C1001301010112
:1007B00067800000130101FF23268100130401015B
:1007C00093070000138507000324C10013010101F2
:1007D00067800000130101FF23268100130401013B
:1007E00093070000138507000324C10013010101D2
:1007F00067800000130101FF23268100130401011B
:1008000093070000138507000324C10013010101B1
:1008100067800000130101FF2326810013040101FA
:1008200093070000138507000324C1001301010191
:1008300067800000130101FF2326810013040101DA
:1008400093070000138507000324C1001301010171
:1008500067800000130101FF2326810013040101BA
:1008600093070000138507000324C1001301010151
:1008700067800000130101FF23268100130401019A
:1008800093070000138507000324C1001301010131
:1008900067800000130101FF23268100130401017A
:1008A00093070000138507000324C1001301010111
:1008B00067800000130101FF23268100130401015A
:1008C00093070000138507000324C10013010101F1
:1008D00067800000130101FF23268100130401013A
:1008E00093070000138507000324C10013010101D1
:1008F00067800000130101FF23268100130401011A
:1009000093070000138507000324C10013010101B0
:1009100067800000130101FF2326810013040101F9
:1009200093070000138507000324C1001301010190
:1009300067800000130101FF2326810013040101D9
:1009400093070000138507000324C1001301010170
:1009500067800000130101FF2326810013040101B9
:1009600093070000138507000324C1001301010150
:1009700067800000130101FF232681001304010199
:1009800093070000138507000324C1001301010130
:1009900067800000130101FF232681001304010179
:1009A00093070000138507000324C1001301010110
:1009B00067800000130101FF232681001304010159
:1009C00093070000138507000324C10013010101F0
:1009D00067800000130101FF232681001304010139
:1009E00093070000138507000324C10013010101D0
:1009F00067800000130101FF232681001304010119
:100A000093070000138507000324C10013010101AF
:100A100067800000130101FE232E810013040102F0
:100A20002326A4FEB707008003A707008327C4FE80
:100A30003307F700B7970180938707256360F702B4
:100A4000B707008003A707008327C4FE3307F7001A
:100A5000B7A701809387072563F6E7009307F0FFA8
:100A60006F000003B707008003A707008327C4FEB9
:100A70003307F700B707008023A0E700B70700801F
:100A800003A707008327C4FEB307F040B307F700AE
:100A9000138507000324C1011301010267800000D0
:100AA0002320B50067800000032505006780000053
:100AB000138E0600331EBE00337ECE0003230500D6
:100AC0009303060093C3F3FF337373003363C301CF
:100AD0002320650067800000032505003375C500ED
:100AE0003355B500678000002310B5006780000013
:100AF0000315050067800000138E0600331EBE003C
:100B0000337ECE00031305009303060093C3F3FF67
:100B1000337373003363C3012310650067800000E3
:100B2000031505003375C5003355B5006780000017
:100B30002300B50067800000030505006780000002
:100B4000138E0600331EBE00337ECE000303050065
:100B50009303060093C3F3FF337373003363C3013E
:100B60002300650067800000030505003375C5009C
:100B70003355B50067800000130101FD23261102E3
:100B80002324810213040103232EA4FC232CB4FC90
:100B90009307060013870600231BF4FC9307070046
:100BA000A30AF4FC8327C4FD638A070C034754FDA2
:100BB0009307700063E4E70C035764FDB727000058
:100BC000637EF70A832784FD13878700835764FDBC
:100BD00093F7F70F9385070013050700EFF05FF514
:100BE000832784FD9386C700034754FD835764FD24
:100BF00093D7574093F7877FB367F7009385070034
:100C000013850600EFF0DFF28327C4FD032784FD80
:100C100023A0E7008327C4FD83A70700938707016C
:100C200013850700EFF05FF19307050093F72700A6
:100C3000A307F4FE6F0080038327C4FD83A707008A
:100C40009387470013850700EFF01FEF8327C4FD4C
:100C500083A707009387070113850700EFF0DFEDF7
:100C60009307050093F72700A307F4FE8347F4FEDC
:100C7000E39407FC8327C4FD2382070013000000D0
:100C80008320C10203248102130101036780000055
:100C9000130101FD23261102232481021304010301
:100CA000232EA4FC232CB4FC232AC4FC8327C4FDDC
:100CB00063800708832784FD638C0706832744FD30
:100CC00063880706232604FE6F00C0058327C4FD42
:100CD00083A707009387070113850700EFF0DFE57F
:100CE0009307050093F71700A305F4FE8347B4FEAE
:100CF000E38E07FC8327C4FD83A60700032784FD3A
:100D00008327C4FEB307F70083C707009385070056
:100D100013850600EFF0DFE18327C4FE93871700F9
:100D20002326F4FE0327C4FE832744FDE360F7FA7D
:100D3000130000008320C102032481021301010378
:100D400067800000130101FD232611022324810284
:100D500013040103232EA4FC232CB4FC8327C4FD1D
:100D600063800708832784FD638C0706232604FE1F
:100D70006F00C0058327C4FD83A707009387070181
:100D800013850700EFF05FDB9307050093F717006B
:100D9000A305F4FE8347B4FEE38E07FC8327C4FD5E
:100DA00083A60700032784FD8327C4FEB307F7004B
:100DB00083C707009385070013850600EFF05FD710
:100DC0008327C4FE938717002326F4FE032784FDA0
:100DD0008327C4FEB307F70083C70700E39C07F827
:100DE000130000008320C1020324810213010103C8
:100DF00067800000130101FD2326110223248102D4
:100E000013040103232EA4FC232CB4FC232AC4FCCA
:100E1000A30704FE832784FD2324F4FE8327C4FD57
:100E2000032784FD23A0E7008327C4FD032744FD97
:100E300023A2E700A30704FE832784FD2324F4FEF6
:100E40006F00800293050000032584FEEFF05FCE63
:100E5000832784FE938747002324F4FE8347F4FE10
:100E600093871700A307F4FE0347F4FE9307F001EE
:100E7000E3FAE7FC8327C4FD83A7470013071000AC
:100E80006386E70263820706130720006390E70C7E
:100E90008327C4FD83A70700938707089305F0FF06
:100EA00013850700EFF0DFBF6F00800A8327C4FDC2
:100EB00083A7070013870708B70701009385F7FF8B
:100EC00013050700EFF05FC28327C4FD83A7070067
:100ED00013874708B70701009385F7FF130507003D
:100EE000EFF09FC06F00C0068327C4FD83A70700F3
:100EF000938707089305F00F13850700EFF05FC392
:100F00008327C4FD83A70700938747089305F00F45
:100F100013850700EFF0DFC18327C4FD83A7070017
:100F2000938787089305F00F13850700EFF05FC0E4
:100F30008327C4FD83A707009387C7089305F00F95
:100F400013850700EFF0DFBE6F0080001300000084
:100F5000130000008320C102032481021301010356
:100F600067800000130101FD232611022324810262
:100F700013040103232EA4FC232CB4FC93070600C6
:100F8000A30BF4FC8327C4FD83A7470013071000BD
:100F90006386E708638E0712130720006394E71E39
:100FA0008327C4FD83A707009387070A13850700DB
:100FB000EFF09FAF2326A4FE834774FD63940702DE
:100FC000832784FD13071000B317F70093C7F7FFBB
:100FD000138707008327C4FEB3F7E7002326F4FE38
:100FE0006F000002832784FD13071000B317F7007A
:100FF000138707008327C4FEB3E7E7002326F4FE28
:101000008327C4FD83A707009387070A8325C4FEAF
:1010100013850700EFF0DFA86F0000178327C4FDDA
:1010200003A70700832784FD93D7470093972700E2
:10103000B307F7009387070A2322F4FE032544FE33
:10104000EFF01FAB930705002315F4FE834774FDF3
:1010500063900704832784FD93F7F70013071000BC
:10106000B317F7009397070193D7074193C7F7FF8B
:1010700013970701135707418317A4FEB377F700AF
:101080009397070193D707412315F4FE6F000003E0
:10109000832784FD93F7F70013071000B317F700B9
:1010A00013970701135707418317A4FEB367F7008F
:1010B0009397070193D707412315F4FE8357A4FEA6
:1010C00093850700032544FEEFF01FA26F00C00BBD
:1010D0008327C4FD03A70700832784FD93D7370028
:1010E00093972700B307F7009387070A2320F4FE9E
:1010F000032504FEEFF05FA493070500A304F4FEAC
:10110000834774FD63900704832784FD93F777007A
:1011100013071000B317F7009397870193D7874100
:1011200093C7F7FF1397870113578741830794FEEF
:10113000B377F7009397870193D78741A304F4FE11
:101140006F000003832784FD93F7770013071000D7
:10115000B317F7001397870113578741830794FE4E
:10116000B367F7009397870193D78741A304F4FEF1
:10117000834794FE93850700032504FEEFF05F9BF1
:101180006F00800013000000130000008320C102E4
:10119000032481021301010367800000130101FD94
:1011A000232611022324810213040103232EA4FC0D
:1011B000232CB4FC8327C4FD83A707002326F4FE59
:1011C000032784FD9307F00163E0E704832784FD90
:1011D000939727000327C4FEB307F7002326F4FEE6
:1011E0000325C4FEEFF05F95930705002324F4FE6A
:1011F000832784FE93E787002324F4FE832584FE5F
:101200000325C4FEEFF0DF92130000008320C1022B
:10121000032481021301010367800000130101FE12
:10122000232E1100232C8100130401022326A4FE87
:101230002324B4FE8327C4FE032784FE23A0E700F3
:101240008327C4FE83A707009305000013850700CA
:10125000EFF01F8E8327C4FE83A707009387470004
:101260009305000013850700EFF09F8C130000002A
:101270008320C10103248101130101026780000062
:10128000130101FE232E1100232C810013040102FF
:101290002326A4FE93870500A305F4FE8327C4FE3E
:1012A00083A707000347B4FE9305070013850700D3
:1012B000EFF01F88130000008320C1010324810187
:1012C0001301010267800000130101FE232E1100AB
:1012D000232C8100130401022326A4FE938705001A
:1012E000A305F4FE8327C4FE83A707009387470066
:1012F0000347B4FE9305070013850700EFF05F83F3
:10130000130000008320C1010324810113010102A5
:1013100067800000130101FD2326110223248102AE
:1013200013040103232EA4FC93870500A30DF4FCF2
:10133000A30704FE8347B4FD639007028327C4FD1F
:1013400083A7070013850700EFF00FFF9307050041
:10135000A307F4FE6F0080050347B4FD9307100058
:101360006312F7028327C4FD83A707009387470012
:1013700013850700EFF04FFC93070500A307F4FE69
:101380006F00C0020347B4FD930720006310F7020B
:101390008327C4FD83A70700938787001385070071
:1013A000EFF08FF993070500A307F4FE8347F4FEDF
:1013B000138507008320C102032481021301010366
:1013C00067800000130101FC232E1102232C8102EF
:1013D000130401042326A4FC232204FEEF00507A08
:1013E00083A7819163980700EF004028130710003E
:1013F00023ACE1908327C4FC638A07029307800033
:10140000138707008327C4FCB387E7002326F4FC77
:101410008327C4FC93F73700638A07008327C4FC43
:1014200093F7C7FF938747002326F4FC8327C4FC68
:10143000638407140327C4FCB79701009387B7FFA1
:1014400063ECE712938781902324F4FE83A78190B5
:101450002326F4FE6F0080018327C4FE2324F4FEBC
:101460008327C4FE83A707002326F4FE8327C4FE38
:1014700083A747000327C4FC63F8E7008327C4FE63
:1014800083A70700E39A07FC0327C4FE9387019113
:101490006304F70E832784FE83A7070013078000E9
:1014A000B387E7002322F4FE8327C4FE03A70700C7
:1014B000832784FE23A0E7008327C4FE03A74700F9
:1014C0008327C4FCB307F7401307800013171700E6
:1014D0006376F7080327C4FE8327C4FCB307F7002D
:1014E000232EF4FC8327C4FE03A747008327C4FCF4
:1014F0003307F7408327C4FD23A2E7008327C4FEF8
:101500000327C4FC23A2E7008327C4FD83A7470069
:10151000232CF4FC938781902320F4FE6F000001BC
:10152000832704FE83A707002320F4FE832704FEFD
:1015300083A7070083A74700032784FDE3E2E7FEB4
:10154000832704FE03A707008327C4FD23A0E70029
:10155000832704FE0327C4FD23A0E700B70700800C
:1015600003A747008327C4FE83A747003307F7403C
:10157000B707008023A2E700EF001063832744FE33
:1015800063940700EF10502E832744FE1385070055
:101590008320C10303248103130101046780000039
:1015A000130101FD232611022324810213040103E8
:1015B000232EA4FC8327C4FD2324F4FE8327C4FD2B
:1015C000638C070893078000B307F040032784FE6D
:1015D000B307F7002324F4FE832784FE2322F4FEBE
:1015E000EF00105A832744FE83A747002320F4FE10
:1015F000938781902326F4FE6F0000018327C4FEA9
:1016000083A707002326F4FE8327C4FE83A70700D1
:1016100083A74700032704FEE3E2E7FE8327C4FE17
:1016200003A70700832744FE23A0E7008327C4FE07
:10163000032744FE23A0E700832744FE03A74700B7
:10164000B707008083A747003307F700B70700807C
:1016500023A2E700EF005055130000008320C102D1
:10166000032481021301010367800000130101FEBE
:10167000232E810013040102B707008093874718C7
:1016800093F7C7FF2326F4FE0327C4FE23A4E190AB
:101690009387819023A207009387019137970100D8
:1016A0001307C7FF23A2E70023A801908327C4FEE6
:1016B0002324F4FE832784FE379701001307C7FF16
:1016C00023A2E700832784FE1387019123A0E7006C
:1016D000130000000324C101130101026780000010
:1016E000130101FE232E810013040102F32740F1B0
:1016F0002326F4FE8327C4FE2324F4FEF36744303C
:101700002322F4FE37070044832784FE93972700A3
:10171000B307F7001307100023A0E7001300000031
:101720000324C1011301010267800000130101FFBE
:10173000232681001304010173700430B707008071
:1017400083A7870013871700B707008023A4E7004B
:10175000130000000324C100130101016780000091
:10176000130101FF2326810013040101B707008044
:1017700083A787001387F7FFB707008023A4E7003C
:10178000B707008083A78700639407007360043065
:10179000130000000324C100130101016780000051
:1017A000130101FE232E810013040102370600807D
:1017B0000326C600032606002324C4FE232604FEB7
:1017C000370600800326C60003264600930606005F
:1017D000130700001398060093070000032784FEF8
:1017E0003367F7002324E4FE0327C4FEB367070131
:1017F0002326F4FE832684FE0327C4FEB7C500001B
:101800009385053513060000B387B60013850700DE
:101810003335D5003308C700330705011308070027
:101820002324F4FE232604FFB707008083A70701C3
:10183000032784FE23A0E7008327C4FE13D30700F9
:1018400093030000B707008083A707011307030075
:1018500023A2E7009307000873A04730130000009D
:101860000324C1011301010267800000130101FE7E
:10187000232E810013040102370600800326C600D0
:10188000032606002324C4FE232604FE3706008018
:101890000326C60003264600930606001307000031
:1018A0001398060093070000032784FE3367F700B0
:1018B0002324E4FE0327C4FEB36707012326F4FEB6
:1018C000832684FE0327C4FEB7C500009385053533
:1018D00013060000B387B600138507003335D50023
:1018E0003308C70033070501130807002324F4FE5B
:1018F000232604FFB707008083A70701032784FE80
:1019000023A0E7008327C4FE13D30700930300003E
:10191000B707008083A707011307030023A2E7008E
:101920009307000873A04730130000000324C1018F
:101930001301010267800000130101FF23268100CB
:1019400013040101B707008003A787009307F0FF86
:101950006306F700737004306F000000737004308A
:101960006F000000130101FE232E81001304010209
:101970002326A4FE2324B4FE2322C4FE8327C4FE10
:101980009387C7FF2326F4FE032784FE8327C4FE24
:1019900023A0E7008327C4FE938787FA2326F4FE5B
:1019A000032744FE8327C4FE23A0E7008327C4FE49
:1019B000938787FE2326F4FE938701001387070091
:1019C0008327C4FE23A0E7008327C4FE938747FF35
:1019D0002326F4FEB7270060138787938327C4FE6E
:1019E00023A0E7008327C4FE138507000324C10159
:1019F0001301010267800000130101FF232611007B
:101A0000232481001304010183A2019223A0C200B8
:101A1000EFF01FD9EF00502F9307050063840700F4
:101A2000EF00504D03A10192032101008322C10761
:101A300073901234832001000322C100832201012C
:101A400003234101832381010324C1018324010273
:101A500003254102832581020326C1028326010357
:101A600003274103832781030328C103832801043B
:101A70000329410483298104032AC104832A01051F
:101A8000032B4105832B8105032CC105832C010603
:101A9000032D4106832D8106032EC106832E0107E7
:101AA000032F4107832F81071301010873002030A2
:101AB000130000008320C1000324810013010101F1
:101AC00067800000130101FF2326110023248100F9
:101AD00013040101EFF09FD9B707008023A407008A
:101AE0001307100023AEE190EFE05F92EFF05FBFCD
:101AF00093070000138507008320C10003248100A1
:101B00001301010167800000130101FF232611006A
:101B1000232481001304010103A7C191930710003E
:101B20006318F7001307200023AEE1906F00000157
:101B300083A2019223A0C200EF00D03B03A1019237
:101B4000032101008322C107739012348320010016
:101B50000322C10083220101032341018323810168
:101B60000324C1018324010203254102832581024C
:101B70000326C10283260103032741038327810330
:101B80000328C10383280104032941048329810414
:101B9000032AC104832A0105032B4105832B8105F8
:101BA000032CC105832C0106032D4106832D8106DC
:101BB000032EC106832E0107032F4107832F8107C0
:101BC000130101081301C1FF23205100B702004493
:101BD00023A0020083220100130141007300203082
:101BE000130000008320C1000324810013010101C0
:101BF00067800000130101FF2326110023248100C8
:101C000013040101EFF0DFAD130000008320C100D9
:101C1000032481001301010167800000130101FE0C
:101C2000232E8100130401022326A4FE8327C4FE71
:101C3000138787008327C4FE23A2E7008327C4FEFF
:101C40001307F0FF23A4E7008327C4FE1387870050
:101C50008327C4FE23A6E7008327C4FE13878700DB
:101C60008327C4FE23A8E7008327C4FE23A0070020
:101C7000130000000324C10113010102678000006A
:101C8000130101FE232E8100130401022326A4FE6A
:101C90008327C4FE23A80700130000000324C1010A
:101CA0001301010267800000130101FD2326810258
:101CB00013040103232EA4FC232CB4FC8327C4FDAE
:101CC00083A747002326F4FE832784FD0327C4FE51
:101CD00023A2E7008327C4FE03A78700832784FD90
:101CE00023A4E7008327C4FE83A78700032784FD7E
:101CF00023A2E7008327C4FE032784FD23A4E70073
:101D0000832784FD0327C4FD23A8E7008327C4FDA0
:101D100083A70700138717008327C4FD23A0E700CC
:101D2000130000000324C1021301010367800000B7
:101D3000130101FD2326810213040103232EA4FCB9
:101D4000232CB4FC832784FD83A707002324F4FEFF
:101D5000032784FE9307F0FF631AF7008327C4FD6F
:101D600083A707012326F4FE6F0040038327C4FDE9
:101D7000938787002326F4FE6F0000018327C4FEAB
:101D800083A747002326F4FE8327C4FE83A74700CA
:101D900083A70700032784FEE372F7FE8327C4FEB0
:101DA00003A74700832784FD23A2E700832784FD40
:101DB00083A74700032784FD23A4E700832784FD2E
:101DC0000327C4FE23A4E7008327C4FE032784FD62
:101DD00023A2E700832784FD0327C4FD23A8E7008F
:101DE0008327C4FD83A70700138717008327C4FD3B
:101DF00023A0E700130000000324C1021301010324
:101E000067800000130101FD2326810213040103F2
:101E1000232EA4FC8327C4FD83A707012326F4FEF9
:101E20008327C4FD83A747000327C4FD032787003A
:101E300023A4E7008327C4FD83A787000327C4FDED
:101E40000327470023A2E7008327C4FE83A7470098
:101E50000327C4FD631AF7008327C4FD03A7870087
:101E60008327C4FE23A2E7008327C4FD23A807001D
:101E70008327C4FE83A707001387F7FF8327C4FEC9
:101E800023A0E7008327C4FE83A70700138507006C
:101E90000324C1021301010367800000130101FD47
:101EA0002326810213040103232EA4FC232CB4FC5B
:101EB000232AC4FC832784FD2326F4FE8327C4FD44
:101EC0002324F4FE0327C4FD832784FDB367F700B2
:101ED00093F73700639607066F00C0028327C4FE9E
:101EE00003A70700832784FE23A0E700832784FE3F
:101EF000938747002324F4FE8327C4FE938747007B
:101F00002326F4FE832744FD9387D7FF0327C4FDD0
:101F1000B307F700032784FEE362F7FC6F0040027B
:101F20000327C4FE930717002326F4FE832784FEAD
:101F3000938617002324D4FE030707002380E700BD
:101F40000327C4FD832744FDB307F700032784FE5E
:101F5000E368F7FC8327C4FD138507000324C1024F
:101F60001301010367800000130101FD2326810294
:101F700013040103232EA4FC232CB4FC232AC4FC49
:101F80000327C4FD832744FDB367F70093F73700A9
:101F900063980706832784FD93F7F70F2322F4FE47
:101FA000832744FE93978700032744FEB367F70017
:101FB0002322F4FE832744FE93970701032744FE60
:101FC000B367F7002322F4FE8327C4FD2326F4FE23
:101FD0006F0080018327C4FE138747002326E4FE99
:101FE000032744FE23A0E7000327C4FD832744FD05
:101FF000B307F7000327C4FEE36EF7FC6F0000048D
:102000008327C4FD2324F4FE6F000002832784FE8F
:10201000138717002324E4FE032784FD1317870189
:10202000135787412380E7000327C4FD832744FD1E
:10203000B307F700032784FEE36AF7FC8327C4FD98
:10204000138507000324C102130101036780000008
:10205000130101FC232E1102232C8102130401041D
:10206000232EA4FC232CB4FC2328D4FC2326E4FC3C
:102070002324F4FC232204FD232014FD93070600EF
:10208000231BF4FC8327C4FD6396070073700430A0
:102090006F0000000327C4FC9307400063F6E700CD
:1020A000737004306F000000835764FD832544FC87
:1020B00013850700EF0010282324A4FE832784FE45
:1020C00063820716832784FE03A70703835664FDF4
:1020D000B70700409387F7FFB387F6009397270071
:1020E000B307F7002322F4FE832744FE93F7C7FFCC
:1020F0002322F4FE832744FE93F73700638607000C
:10210000737004306F000000835764FD138707006D
:10211000832604FC0326C4FC832584FD032584FE5A
:10212000EF00406F032604FD8325C4FD032544FE14
:10213000EFF05F8313070500832784FE23A0E700E9
:10214000832784FC63880700832784FC032784FE9D
:1021500023A0E700EFF08FDD83A70193138717001B
:1021600023A8E19283A7019263900702032784FECC
:1021700023A0E19203A70193930710006316F702CF
:10218000EF00C07C6F00400283A7C193639E0700ED
:1021900083A7019283A7C7020327C4FC6366F700E5
:1021A000032784FE23A0E19283A7C194138717001D
:1021B00023A6E19403A7C194832784FE23A4E70404
:1021C000832784FE03A7C70283A7819363F8E700F0
:1021D000832784FE03A7C70223ACE192832784FEF2
:1021E00003A7C7029307070093972700B387E70069
:1021F0009397270037970180130707183387E70065
:10220000832784FE93874700938507001305070003
:10221000EFF09FA9930710002326F4FEEFF04FD4B0
:102220006F00C0009307F0FF2326F4FE0327C4FECF
:10223000930710006310F70283A7C193638C070014
:1022400083A7019283A7C7020327C4FC63F4E700B6
:10225000EFF05F9A8327C4FE138507008320C10334
:10226000032481031301010467800000130101FDB1
:10227000232611022324810213040103232EA4FC2C
:10228000232604FE8327C4FD6384070483A74195A6
:1022900063860700737004306F000000EF00400E8B
:1022A00083A741930327C4FDB307F7002324F4FE5B
:1022B00083A701929387470013850700EFF09FB42F
:1022C000032584FEEF00807EEF00000E2326A4FE8F
:1022D0008327C4FE63940700EFF0DF911300000032
:1022E0008320C102032481021301010367800000DF
:1022F000130101FE232E1100232C8100130401027F
:102300009308000013080000930700001307000063
:102310009306000013060040B7450060938585FAD8
:10232000372500601305057EEFF09FD22326A4FE1B
:102330000327C4FE930710006312F7027370043082
:102340001307F0FF23A8E1941307100023AEE192D6
:1023500023AA0192EFF00FF76F0040018327C4FE1C
:1023600063960700737004306F00000013000000D4
:102370008320C10103248101130101026780000051
:10238000130101FF232681001304010183A7419556
:102390001387170023AAE194130000000324C1004F
:1023A0001301010167800000130101FE232E1100BB
:1023B000232C810013040102232604FE83A74195E8
:1023C00063960700737004306F000000EFF00FB6E3
:1023D00083A741951387F7FF23AAE19483A741952B
:1023E0006396071083A70193638207106F00800A2A
:1023F000B79701809387C72083A7C70083A7C7002B
:102400002324F4FE832784FE938787011385070026
:10241000EFF05F9F832784FE9387470013850700B3
:10242000EFF05F9E832784FE03A7C70283A78193F3
:1024300063F8E700832784FE03A7C70223ACE19279
:10244000832784FE03A7C7029307070093972700FB
:10245000B387E70093972700379701801307071882
:102460003387E700832784FE93874700938507001F
:1024700013050700EFF05F83832784FE03A7C702DD
:1024800083A7019283A7C7026366F70013071000B2
:1024900023A2E194B797018083A7C720E39A07F4AA
:1024A00083A70194638807026F004002EF00C00514
:1024B00093070500638607001307100023A2E19429
:1024C00083A701941387F7FF23A0E19483A70194C6
:1024D000E39E07FC03A74194930710006318F700DD
:1024E000930710002326F4FEEFF0CFF0EFF04FA794
:1024F0008327C4FE138507008320C10103248101C3
:102500001301010267800000130101FD232611025F
:102510002324810213040103232604FE83A741958B
:102520006390071A83A741931387170023AAE192A8
:1025300083A741932324F4FE832784FE639007043A
:1025400083A7419283A70700638607007370043056
:102550006F00000083A741922322F4FE03A781921B
:1025600023A2E192032744FE23A4E19283A781944E
:102570001387170023A4E194EF00C06B83A7019594
:10258000032784FE6360F71083A7419283A70700A7
:1025900063960700930710006F0080009307000008
:1025A000638807001307F0FF23A8E1946F00800DF4
:1025B00083A7419283A7C70083A7C7002320F4FE07
:1025C000832704FE83A74700232EF4FC032784FE01
:1025D0008327C4FD6378F7000327C4FD23A8E19493
:1025E0006F00400A832704FE938747001385070086
:1025F000EFF05F81832704FE83A78702638A0700C9
:10260000832704FE9387870113850700EFF08FFF70
:10261000832704FE03A7C70283A7819363F8E7001B
:10262000832704FE03A7C70223ACE192832704FE9D
:1026300003A7C7029307070093972700B387E70014
:102640009397270037970180130707183387E70010
:10265000832704FE9387470093850700130507002F
:10266000EFF08FE4832704FE03A7C70283A701923C
:1026700083A7C702E36AF7F0930710002326F4FE4E
:102680006FF09FF083A7019203A7C702B79601805E
:102690009307070093972700B387E70093972700D6
:1026A00013870618B387E70003A7070093071000F6
:1026B00063FEE700930710002326F4FE6F0000017D
:1026C00083A701941387170023A0E19483A7419463
:1026D00063860700930710002326F4FE8327C4FEB9
:1026E000138507008320C102032481021301010323
:1026F00067800000130101FE232E810013040102F4
:1027000083A74195638807001307100023A2E19473
:102710006F00000C23A201946F00000283A7819335
:1027200063960700737004306F00000083A78193E5
:102730001387F7FF23ACE19203A78193B79601803B
:102740009307070093972700B387E7009397270025
:1027500013870618B387E70083A70700E38007FC09
:1027600003A781939307070093972700B387E70098
:10277000939727003797018013070718B387E7005F
:102780002326F4FE8327C4FE83A7470003A7470040
:102790008327C4FE23A2E7008327C4FE03A74700C4
:1027A0008327C4FE93878700631CF7008327C4FE3A
:1027B00083A7470003A747008327C4FE23A2E7009F
:1027C0008327C4FE83A7470003A7C70023A0E19285
:1027D000130000000324C1011301010267800000FF
:1027E000130101FE232E1100232C8100130401028A
:1027F0002326A4FEEF008021B797018003A70718C6
:102800009307100063F4E700EFF0CFBEEF0010076E
:102810006FF05FFE130101FC232E1102232C8102B5
:1028200013040104232EA4FC232CB4FC232AC4FC8F
:102830002328D4FC930707002317F4FC232604FE67
:102840006F004004032784FD8327C4FEB307F7000D
:10285000038707008326C4FD8327C4FEB387F600E1
:10286000238AE702032784FD8327C4FEB307F7000A
:1028700083870700638007028327C4FE93871700BE
:102880002326F4FE0327C4FE9307F000E3FCE7FAD7
:102890006F008000130000008327C4FDA38107049C
:1028A000032744FD9307400063F6E70093074000C9
:1028B000232AF4FC8327C4FD032744FD23A6E70253
:1028C0008327C4FD032744FD23A8E7048327C4FD11
:1028D00023AA07048327C4FD9387470013850700B5
:1028E000EFF00FBA8327C4FD938787011385070094
:1028F000EFF00FB98327C4FD0327C4FD23A8E70029
:1029000013075000832744FD3307F7408327C4FD96
:1029100023ACE7008327C4FD0327C4FD23A2E702FD
:102920008327C4FD23A207048327C4FD23AC070427
:102930008327C4FD23AE0704130000008320C103D6
:10294000032481031301010467800000130101FEC9
:10295000232E1100232C810013040102232604FEE0
:102960006F0080030327C4FE930707009397270097
:10297000B387E7009397270037970180130707185D
:10298000B387E70013850700EFF04FA98327C4FE44
:10299000938717002326F4FE0327C4FE9307400005
:1029A000E3F2E7FCB79701801385471EEFF00FA70E
:1029B000B79701801385871FEFF04FA6B797018067
:1029C0001385C720EFF08FA5B797018013850722E5
:1029D000EFF0CFA4B797018013854723EFF00FA442
:1029E000379701801307471E23A2E1923797018092
:1029F0001307871F23A4E192130000008320C10165
:102A0000032481011301010267800000130101FE0C
:102A1000232E1100232C8100130401026F004007B4
:102A2000EFF01F96B797018083A7072293B717008F
:102A300093F7F70F2326F4FEEFF01F978327C4FECA
:102A400063980704EFE09FCEB79701809387072232
:102A500083A7C70083A7C7002324F4FE832784FE2F
:102A60009387470013850700EFF0CFB983A7019341
:102A70001387F7FF23A8E19283A7C1921387F7FF7B
:102A800023A6E192EFE0DFCD032584FEEF00801660
:102A900083A7C192E39607F8130000008320C101C9
:102AA000032481011301010267800000130101FE6C
:102AB000232E1100232C8100130401022326A4FEDF
:102AC00083A701920327C4FE23A2E70083A74193B3
:102AD0000327C4FE6370F70203A7819283A70192C4
:102AE000938747009385070013050700EFF04FA475
:102AF0006F00000303A7419283A7019293874700C9
:102B00009385070013050700EFF08FA283A70195B7
:102B10000327C4FE6376F7000327C4FE23A8E194CD
:102B2000130000008320C10103248101130101026D
:102B300067800000130101FD232611022324810276
:102B40001304010393070500232CB4FC231FF4FC9A
:102B5000832784FD639E07008357E4FD9397270036
:102B600013850700EFE01F86930705006F008000C4
:102B7000832784FD2324F4FE832784FE638A0702CF
:102B800013050006EFE01F842326A4FE8327C4FE5E
:102B9000638A07008327C4FE032784FE23A8E70275
:102BA0006F004001032584FEEFE09F9F6F008000CF
:102BB000232604FE8327C4FE638207028327C4FE04
:102BC00003A707038357E4FD9397270013860700A5
:102BD0009305500A13050700EFF00FB98327C4FED1
:102BE000138507008320C10203248102130101031E
:102BF00067800000130101FE232E1100232C8100A9
:102C0000130401022326A4FE8327C4FE83A707031F
:102C100013850700EFE0DF980325C4FEEFE05F981F
:102C2000130000008320C10103248101130101026C
:102C300067800000130101FE232E810013040102AE
:102C400083A7419283A707006396070093071000AC
:102C50006F00800093070000638807001307F0FFF0
:102C600023A8E1946F00000283A7419283A7C700C5
:102C700083A7C7002326F4FE8327C4FE03A74700CB
:102C800023A8E194130000000324C10113010102F1
:102C900067800000130101FE232E1100232C810008
:102CA000130401022326A4FE8327C4FE93E7071022
:102CB000130620009385070013858195EFE08F931D
:102CC0008327C4FE93E707101306200093850700AF
:102CD00013850196EFE00F9293050000138581950F
:102CE000EFE0CFCB9305100013858195EFE00FCB7C
:102CF000130600009305200013850196EFE08FA6D0
:102D0000130600009305300013850196EFE08FA5B0
:102D1000130600009305400013850196EFE08FA491
:102D2000130600009305500013850196EFE08FA372
:102D3000930610001306A0018325C4FE1385819617
:102D4000EFD09FE3130000008320C1010324810121
:102D50001301010267800000130101FF2326110007
:102D60002324810013040101130610009305400081
:102D700013850196EFE00F9F130000008320C10030
:102D8000032481001301010167800000130101FF8A
:102D900023261100232481001304010113060000DF
:102DA0009305400013850196EFE0CF9B13000000D0
:102DB0008320C1000324810013010101678000000A
:102DC000130101FE232E1100232C810013040102A4
:102DD0002326A4FE93870500A305F4FE0347B4FE53
:102DE00093071000631AF7008325C4FE13858196AC
:102DF000EFD05FF56F004001130610008325C4FE7D
:102E000013858196EFD0DFE8130000008320C10115
:102E1000032481011301010267800000130101FEF8
:102E2000232E810013040102F32740F12324F4FE32
:102E3000832784FE2322F4FE232604FE6F00C003B2
:102E400037070040832744FE939657008327C4FE2C
:102E5000B386F600B717000093870780B387F600A4
:102E600093972700B307F70023A007008327C4FE2A
:102E7000938717002326F4FE8327C4FEE38207FC12
:102E8000232604FE6F004002370700408327C4FE5C
:102E900093972700B307F70023A007008327C4FEFA
:102EA000938717002326F4FE0327C4FE9307E0014F
:102EB000E3FCE7FC37070040832744FE93870720A5
:102EC0009397C700B307F70023A00700B7170000C8
:102ED00093870780F3A747302320F4FE13000000F8
:102EE0000324C1011301010267800000130101FFE7
:102EF0002326810013040101130000000324C100F4
:102F00001301010167800000130101FF23268100E6
:102F100013040101130000000324C1001301010187
:102F200067800000130101FF2326810013040101C3
:102F3000130000000324C100130101016780000099
:102F4000130101FB2326110423248104130401052A
:102F5000EFF0DFEC37050070EFF0DFD3B72500703E
:102F600013850197EFE08FAB83A741819305100094
:102F700013850700EFF0DFE493080000130800005A
:102F80009307000013071000930600001306803E0D
:102F9000B7450060938585093735006013058509BD
:102FA000EFF00F8BA30704FE230704FEA30604FE25
:102FB000930720002306F4FE93075000A305F4FEB8
:102FC0008347C4FE9385070013850197EFE04FAB5D
:102FD0008347B4FE9385070013850197EFE0CFAEDA
:102FE0009305000013850197EFE0CFB2930705002A
:102FF000A307F4FE9305100013850197EFE08FB14E
:10300000930705002307F4FE93052000138501971D
:10301000EFE04FB093070500A306F4FE8347F4FEEC
:103020008346E4FE0347D4FE130584FB13860700A2
:10303000B74700609385070AEF000009930784FBF8
:103040009305100013850700EFF09FD7EFF04FAA0C
:1030500093070000138507008320C1040324810423
:103060001301010567800000130101FF2326810081
:1030700013040101737004306F000000130101FF9D
:103080002326810013040101130000000324C10062
:103090001301010167800000130101FE232E1100BE
:1030A000232C8100130401022326A4FEEFF0DFCAC3
:1030B0001305D000EFF08F9BEFF05FCD1305D0002C
:1030C000EFF0CF9A6FF09FFE130101F6232AF1086B
:1030D000B707008093C7F7FF232EF1002328F100E4
:1030E000B707FFFF938787202324C1082326D10831
:1030F0002328E108232C0109232E1109232AF1009A
:10310000938781812324A100232CA10003A507001C
:10311000930681081386050093058100232E11066E
:103120002322D100EF0000188327810023800700AD
:103130008320C1071301010A67800000130101FE0B
:103140002328210103A98500232C81002324410188
:1031500023206101232E1100232A9100232631010F
:103160002322510113840500130B0600138A060065
:1031700063EE260D83D7C50013F707486306070CD7
:103180008324040083A5050103274401930A050055
:10319000B389B44093043000B384E40213072000E1
:1031A000B3C4E402138716003307370163F4E40065
:1031B0009304070093F707406384070C938504008A
:1031C00013850A00EF00D0371309050063120504C8
:1031D0009307C00023A0FA008357C4001305F0FF33
:1031E00093E707042316F4008320C101032481011F
:1031F00083244101032901018329C100032A81009D
:10320000832A4100032B01001301010267800000A3
:103210008325040113860900EFE05FC88357C400CB
:1032200093F7F7B793E707082316F4002328240140
:10323000232A940033093901B38434412320240123
:103240002324940013090A0063742A0113090A0055
:10325000032504001306090093050B00EF00501826
:103260008327840013050000B38727412324F4003B
:103270008327040033892701232024016FF0DFF620
:103280001386040013850A00EF005040130905005F
:10329000E31E05F88325040113850A00EF00101AC8
:1032A0006FF01FF383D7C500130101F52322910AA4
:1032B0002320210B232E31092326110A2324810ADE
:1032C000232C4109232A5109232861092326710946
:1032D000232481092322910993F707089309050004
:1032E00013890500930406006388070683A7050178
:1032F00063940706930500042326D100EF005024B1
:103300002320A9002328A9008326C10063120504F5
:103310009307C00023A0F9001305F0FF8320C10A22
:103320000324810A8324410A0329010A8329C1094C
:10333000032A8109832A4109032B0109832BC10830
:10334000032C8108832C41081301010B67800000C6
:1033500093070004232AF90093070002A30CF1024B
:1033600093070003232A0102230DF102232ED1002B
:10337000930B5002971A0000938A8AD3130C100003
:10338000130BA00013840400834704006384070028
:103390006398770DB30C944063860C0293860C00FF
:1033A000138604009305090013850900EFF01FD967
:1033B0009307F0FF630AF52483264103B386960141
:1033C000232AD10283470400638007249307F0FF78
:1033D0009304140023200102232601022322F10278
:1033E00023240102A3010106232C010683C5040046
:1033F0001306500013850A00EF00407C138414006C
:10340000832701026312050613F70701630607000D
:1034100013070002A301E10613F787006306070004
:103420001307B002A301E10683C604001307A0023C
:103430006388E6048327C102138404009306000016
:10344000130690000347040093051400130707FDBB
:10345000637AE608638206042326F1026F00C00344
:10346000130414006FF05FF2330555413315AC00BF
:10347000B3E7A7002320F102930404006FF01FF7C5
:103480000327C1019306470003270700232ED1001D
:10349000634007042326E102034704009307E00288
:1034A0006314F708034714009307A002631AF70494
:1034B0008327C101130424001387470083A7070053
:1034C000232EE10063CA07022322F1026F00C00528
:1034D0003307E04093E727002326E1022320F1028F
:1034E0006FF09FFBB38767039306100013840500FA
:1034F000B387E7006FF01FF59307F0FF6FF0DFFC75
:103500001304140023220102930600009307000015
:10351000130690000347040093051400130707FDEA
:10352000637CE608E39206FA834504001306300044
:1035300017150000130545B8EF0040686304050245
:1035400097170000938747B73305F54093070004AA
:10355000B397A70003250102130414003365F50097
:103560002320A10283450400130660001715000004
:103570001305C5B493041400230CB102EF000064DA
:103580006300050A97D7FF9F9387C7A7639807042F
:10359000032701028327C10113770710630807027D
:1035A00093874700232EF10083274103B387470108
:1035B000232AF1026FF01FDDB38767039306100023
:1035C00013840500B387E7006FF0DFF4938777007B
:1035D00093F787FF938787006FF0DFFC1307C10124
:1035E000970600009386C6B51306090093050102ED
:1035F0001385090097000000E70000009307F0FF23
:10360000130A0500E312F5FA8357C9001305F0FF0A
:1036100093F70704E39407D0032541036FF01FD00D
:103620001307C10197060000938686B113060900AF
:103630009305010213850900EF00801B6FF01FFC4A
:10364000130101FD232A510183A70501930A0700F5
:1036500003A785002324810223229102232E310116
:10366000232C410123261102232021032328610159
:1036700023267101930905001384050093040600B5
:10368000138A060063D4E7009307070023A0F40021
:1036900003473404630607009387170023A0F40050
:1036A0008327040093F707026388070083A70400B9
:1036B0009387270023A0F4000329040013796900ED
:1036C000631E0900130B9401930BF0FF8327C400C2
:1036D00003A70400B387E7406342F9088327040087
:1036E0008346340493F70702B336D0006390070C87
:1036F0001306340493050A0013850900E7800A00C5
:103700009307F0FF6308F5068327040013064000C3
:1037100003A7040093F767008326C4009304000006
:103720006398C700B384E64063D4040093040000A8
:1037300083278400032704016356F700B387E7401B
:10374000B384F400130900001304A401130BF0FF69
:1037500063902409130500006F0000029306100017
:1037600013060B0093050A0013850900E7800A0081
:10377000631A75031305F0FF8320C102032481023D
:1037800083244102032901028329C101032A810103
:10379000832A4101032B0101832BC1001301010383
:1037A00067800000130919006FF05FF23307D4003F
:1037B00013060003A301C7040347540493871600AC
:1037C000B307F40093862600A381E7046FF05FF24D
:1037D000930610001306040093050A0013850900E0
:1037E000E7800A00E30865F9130919006FF05FF636
:1037F000130101FD232481022322910223202103AE
:10380000232E310123261102232C4101232A5101A9
:10381000232861019389060083C685019307E0068A
:10382000130906009304050013840500138635046C
:103830006388F62863EAD70693073006638EF60A94
:1038400063EED700638C062A93078005638AF61E11
:10385000930A24042301D4046F00800B93074006CD
:103860006386F60093079006E394F6FE8327040030
:103870000325070093F6070893054500638E0608A5
:10388000832705002320B70063D807001307D00261
:10389000B307F040A301E4049716000093868682E4
:1038A0001307A0006F00800D93073007638EF62486
:1038B00063E2D7029307F006638EF60693070007CC
:1038C000E398F6F883A7050093E7070223A0F50025
:1038D0006F00400193075007638EF604930780073B
:1038E000E398F6F693078007A302F4049706000016
:1038F0009386867E6F00801583270700938A2504B0
:103900009386470083A707002320D7002381F5046F
:10391000930710006F00402293F6070483270500E9
:103920002320B700E38206F69397070193D7074158
:103930006FF09FF5832504008327070013F805081F
:1039400013854700630808002320A70083A707000A
:103950006F00400193F505042320A700E38805FECE
:1039600083D707001307F0066380E614970600006C
:10397000938646751307A000A30104048325440021
:103980002324B40063C80500032504001375B5FFA4
:103990002320A40063960700930A060063820502B1
:1039A000930A0600B3F5E702938AFAFFB385B600DF
:1039B00083C505002380BA00B3D5E70263FEE70E96
:1039C000930780006314F7028327040093F717001E
:1039D000638E0700032744008327040163C8E700C0
:1039E00093070003A38FFAFE938AFAFF330656412A
:1039F0002328C40013870900930609001306C10099
:103A00009305040013850400EFF09FC3130AF0FF31
:103A1000631A45131305F0FF8320C10203248102BA
:103A200083244102032901028329C101032A810160
:103A3000832A4101032B0101130101036780000068
:103A4000A382D504970600009386C66783250400E9
:103A50000325070013F80508832705001305450013
:103A6000630808022320A70013F715006306070068
:103A700093E505022320B40013070001E39E07EE3F
:103A80008325040093F5F5FD2320B4006FF0DFEEED
:103A900013F805042320A700E30808FC9397070107
:103AA00093D707016FF05FFC97060000938686614D
:103AB000130780006FF05FEC938705006FF09FEEB7
:103AC00083A605008327070083A5450113F8060890
:103AD00013854700630A08002320A70083A7070077
:103AE00023A0B7006F0080012320A70093F60604EF
:103AF00083A70700E38606FE2390B700232804006F
:103B0000930A06006FF01FEF8327070003A6450006
:103B100093050000938647002320D70083AA07005F
:103B200013850A00EF00800963060500330555413F
:103B30002322A400832744002328F400A3010404C3
:103B40006FF05FEB8326040113860A0093050900DA
:103B500013850400E7800900E30E45EB832704008A
:103B600093F72700639407048327C1000325C4004B
:103B7000E354F5EA138507006FF01FEA930610007F
:103B800013860A009305090013850400E7800900E5
:103B9000E30265E9130A1A008327C4000327C10062
:103BA000B387E740E34CFAFC6FF01FFC130A0000F8
:103BB000930A9401130BF0FF6FF01FFE93F5F50FBE
:103BC0003306C5006316C5001305000067800000BA
:103BD00083470500E38CB7FE130515006FF09FFEC9
:103BE00063FAA504B386C5006376D5049345F6FF52
:103BF000930700009387F7FF6394F5006780000048
:103C00003387F600034807003387C7003307E50012
:103C1000230007016FF01FFE3387F500834607007E
:103C20003307F500938717002300D700E316F6FE4D
:103C300067800000930700006FF05FFF638005104E
:103C400083A7C5FF130101FF232481002326110050
:103C5000232291001384C5FF63D407003304F400CA
:103C600093040500EF00C0309387419783A70700B6
:103C7000639207022322040023AA81960324810071
:103C80008320C10013850400832441001301010136
:103C90006F00402E6376F402832604003307D400BD
:103CA000639AE70003A7070083A747003307D700FD
:103CB0002320E4002322F4006FF01FFC9307070089
:103CC00003A7470063040700E37AE4FE83A6070026
:103CD0003386D7006318860203260400B386C60025
:103CE00023A0D7003386D700E31AC7F803260700BE
:103CF00003274700B306D60023A0D70023A2E7007E
:103D00006FF0DFF76378C4009307C00023A0F400CE
:103D10006FF0DFF603260400B306C400631AD70071
:103D20008326070003274700B386C6002320D4005C
:103D30002322E40023A287006FF05FF46780000075
:103D4000130101FE232A91009384350093F4C4FFEC
:103D5000232E1100232C8100232821012326310149
:103D6000938484009307C00063F4F4069304C000B6
:103D700063E2B40613090500EF00801F93874197A3
:103D800003A7070013040700631A040693878197AB
:103D900083A70700639A0700930500001305090035
:103DA000EF00401823ACA196938504001305090089
:103DB000EF0040179309F0FF631A350B9307C0001B
:103DC0002320F90013050900EF00C01A6F0000015D
:103DD000E3D004FA9307C0002320F5001305000088
:103DE0008320C101032481018324410103290101AE
:103DF0008329C100130101026780000083270400AA
:103E0000B387974063CE07049306B00063FAF600C9
:103E10002320F4003304F400232094006F000001F9
:103E200083274400631A870223AAF1961305090029
:103E3000EF0040141305B40093074400137585FF89
:103E40003307F540E30E07F83304E400B387A740D7
:103E50002320F4006FF0DFF82322F7006FF01FFD3E
:103E600013070400032444006FF01FF2130435000D
:103E70001374C4FFE30285FAB305A44013050900D7
:103E8000EF00400AE31A35F96FF05FF3639605001F
:103E9000930506006FF0DFEA130101FE232C810079
:103EA000232E1100232A91002328210123263101EA
:103EB0001304060063160602EFF05FD81309000032
:103EC0008320C101032481011305090083244101DA
:103ED000032901018329C100130101026780000049
:103EE0009384050093090500EF000009138904007D
:103EF000E37885FC9305040013850900EFF05FE487
:103F000013090500E30E05FA938504001306040067
:103F1000EFD0DFF89385040013850900EFF01FD27E
:103F20006FF01FFA130101FF232481001304050021
:103F3000138505009757012023AA07302326110077
:103F4000EFC05FAD9307F0FF631CF50097570120AA
:103F50009387C72F83A70700638407002320F400FB
:103F60008320C10003248100130101016780000048
:103F7000678000006780000083A7C5FF1385C7FF27
:103F800063D80700B385A50083A705003305F500B6
:103F9000678000000000000000000000000000003A
:103FA00068656C6C6F00000049444C4500000000DF
:103FB0000A0D28432920436F70797269676874205D
:103FC000323031392046757475726520456C6563F1
:103FD00074726F6E696373202D204372656174691A
:103FE000766520426F6172640A0D00000A0D467208
:103FF000656552544F532053696D706C652044655C
:104000006D6F0A0D2020546869732064656D6F2000
:1040100063726561746573203320626C696E6B69CD
:104020006E67204C4544207461736B7320616E642D
:1040300020616374697661746520746865204672D6
:10404000656552544F530A0D20207363686564758B
:104050006C65722E204C454431205265642C204CF6
:1040600045443220477265656E20616E642052655A
:10407000642073686F756C6420737461727420625D
:104080006C696E6B696E672E0A0D0000436865638C
:104090006B696E672E2E2E004C45443100000000E7
:1040A000256420256420256400000000232D302B8A
:1040B00020000000686C4C006566674546470000BC
:1040C000303132333435363738394142434445464E
:1040D0000000000030313233343536373839616210
:1040E000636465660000000000000000000000003E
:1040F00050920180FC8F0100AAAAAAAAF8BF00442E
:10410000004000448C400060A000008000000000DF
:104110007406006094060060B4060060D406006077
:10412000F406006014070060340700605407006064
:104130007407006094070060B4070060D407006053
:10414000F407006014080060340800605408006040
:104150007408006094080060B4080060D40800602F
:10416000F40800601409006034090060540900601C
:104170007409006094090060B4090060D40900600B
:10418000F4090060242F0060082F0060EC2E00600E
:10419000000000000000000000000000000000001F
:1041A000000000000000000000000000000000000F
:1041B00000000000000000000000000000000000FF
:1041C00000000000000000000000000000000000EF
:1041D00000000000000000000000000000000000DF
:1041E00000000000000000000000000000000000CF
:040000056000000097
:00000001FF
